{
  "address": "0xED099B095F77A9bC3c8a418028817E69448De544",
  "abi": [
    {
      "inputs": [
        {
          "internalType": "address",
          "name": "_svgRender_",
          "type": "address"
        },
        {
          "internalType": "address",
          "name": "_traitsFetch_",
          "type": "address"
        },
        {
          "components": [
            {
              "internalType": "string",
              "name": "name",
              "type": "string"
            },
            {
              "internalType": "string",
              "name": "description",
              "type": "string"
            },
            {
              "internalType": "string",
              "name": "image",
              "type": "string"
            },
            {
              "internalType": "string",
              "name": "externalLink",
              "type": "string"
            },
            {
              "internalType": "string",
              "name": "sellerFeeBasisPoints",
              "type": "string"
            },
            {
              "internalType": "string",
              "name": "feeRecipient",
              "type": "string"
            }
          ],
          "internalType": "struct ERC721Storage.ContractURI",
          "name": "_contractURI_",
          "type": "tuple"
        },
        {
          "internalType": "address",
          "name": "_erc20TWABInstance",
          "type": "address"
        },
        {
          "internalType": "address",
          "name": "_erc721KDesignInstance",
          "type": "address"
        },
        {
          "internalType": "address",
          "name": "_assetUnderlying",
          "type": "address"
        }
      ],
      "stateMutability": "nonpayable",
      "type": "constructor"
    },
    {
      "inputs": [],
      "name": "NewOwnerIsZeroAddress",
      "type": "error"
    },
    {
      "inputs": [],
      "name": "NoHandoverRequest",
      "type": "error"
    },
    {
      "anonymous": false,
      "inputs": [
        {
          "components": [
            {
              "internalType": "string",
              "name": "name",
              "type": "string"
            },
            {
              "internalType": "string",
              "name": "description",
              "type": "string"
            },
            {
              "internalType": "string",
              "name": "image",
              "type": "string"
            },
            {
              "internalType": "string",
              "name": "externalLink",
              "type": "string"
            },
            {
              "internalType": "string",
              "name": "sellerFeeBasisPoints",
              "type": "string"
            },
            {
              "internalType": "string",
              "name": "feeRecipient",
              "type": "string"
            }
          ],
          "indexed": false,
          "internalType": "struct ERC721Storage.ContractURI",
          "name": "contractURI",
          "type": "tuple"
        }
      ],
      "name": "ContractURIUpdated",
      "type": "event"
    },
    {
      "anonymous": false,
      "inputs": [
        {
          "indexed": true,
          "internalType": "address",
          "name": "pendingOwner",
          "type": "address"
        }
      ],
      "name": "OwnershipHandoverCanceled",
      "type": "event"
    },
    {
      "anonymous": false,
      "inputs": [
        {
          "indexed": true,
          "internalType": "address",
          "name": "pendingOwner",
          "type": "address"
        }
      ],
      "name": "OwnershipHandoverRequested",
      "type": "event"
    },
    {
      "anonymous": false,
      "inputs": [
        {
          "indexed": true,
          "internalType": "address",
          "name": "oldOwner",
          "type": "address"
        },
        {
          "indexed": true,
          "internalType": "address",
          "name": "newOwner",
          "type": "address"
        }
      ],
      "name": "OwnershipTransferred",
      "type": "event"
    },
    {
      "anonymous": false,
      "inputs": [
        {
          "indexed": true,
          "internalType": "address",
          "name": "user",
          "type": "address"
        },
        {
          "indexed": true,
          "internalType": "uint256",
          "name": "roles",
          "type": "uint256"
        }
      ],
      "name": "RolesUpdated",
      "type": "event"
    },
    {
      "anonymous": false,
      "inputs": [
        {
          "indexed": false,
          "internalType": "address",
          "name": "svgRender",
          "type": "address"
        }
      ],
      "name": "SvgRenderUpdated",
      "type": "event"
    },
    {
      "anonymous": false,
      "inputs": [
        {
          "indexed": false,
          "internalType": "address",
          "name": "traitsFetch",
          "type": "address"
        }
      ],
      "name": "TraitsFetchUpdated",
      "type": "event"
    },
    {
      "inputs": [],
      "name": "assetUnderlying",
      "outputs": [
        {
          "internalType": "address",
          "name": "",
          "type": "address"
        }
      ],
      "stateMutability": "view",
      "type": "function"
    },
    {
      "inputs": [],
      "name": "cancelOwnershipHandover",
      "outputs": [],
      "stateMutability": "payable",
      "type": "function"
    },
    {
      "inputs": [
        {
          "internalType": "address",
          "name": "pendingOwner",
          "type": "address"
        }
      ],
      "name": "completeOwnershipHandover",
      "outputs": [],
      "stateMutability": "payable",
      "type": "function"
    },
    {
      "inputs": [],
      "name": "constructContractURI",
      "outputs": [
        {
          "internalType": "string",
          "name": "uri",
          "type": "string"
        }
      ],
      "stateMutability": "view",
      "type": "function"
    },
    {
      "inputs": [
        {
          "internalType": "uint256",
          "name": "tokenId",
          "type": "uint256"
        },
        {
          "internalType": "bytes",
          "name": "input0",
          "type": "bytes"
        },
        {
          "internalType": "bytes",
          "name": "input1",
          "type": "bytes"
        }
      ],
      "name": "constructTokenURI",
      "outputs": [
        {
          "internalType": "string",
          "name": "uri",
          "type": "string"
        }
      ],
      "stateMutability": "view",
      "type": "function"
    },
    {
      "inputs": [],
      "name": "erc20TWABInstance",
      "outputs": [
        {
          "internalType": "address",
          "name": "",
          "type": "address"
        }
      ],
      "stateMutability": "view",
      "type": "function"
    },
    {
      "inputs": [],
      "name": "erc721KDesignInstance",
      "outputs": [
        {
          "internalType": "address",
          "name": "",
          "type": "address"
        }
      ],
      "stateMutability": "view",
      "type": "function"
    },
    {
      "inputs": [],
      "name": "erc721KInstance",
      "outputs": [
        {
          "internalType": "address",
          "name": "",
          "type": "address"
        }
      ],
      "stateMutability": "view",
      "type": "function"
    },
    {
      "inputs": [],
      "name": "getContractDescription",
      "outputs": [
        {
          "components": [
            {
              "internalType": "string",
              "name": "name",
              "type": "string"
            },
            {
              "internalType": "string",
              "name": "description",
              "type": "string"
            },
            {
              "internalType": "string",
              "name": "image",
              "type": "string"
            },
            {
              "internalType": "string",
              "name": "externalLink",
              "type": "string"
            },
            {
              "internalType": "string",
              "name": "sellerFeeBasisPoints",
              "type": "string"
            },
            {
              "internalType": "string",
              "name": "feeRecipient",
              "type": "string"
            }
          ],
          "internalType": "struct ERC721Storage.ContractURI",
          "name": "",
          "type": "tuple"
        }
      ],
      "stateMutability": "view",
      "type": "function"
    },
    {
      "inputs": [],
      "name": "getERC721KRender",
      "outputs": [
        {
          "internalType": "address",
          "name": "",
          "type": "address"
        }
      ],
      "stateMutability": "view",
      "type": "function"
    },
    {
      "inputs": [],
      "name": "getERC72KTraits",
      "outputs": [
        {
          "internalType": "address",
          "name": "",
          "type": "address"
        }
      ],
      "stateMutability": "view",
      "type": "function"
    },
    {
      "inputs": [
        {
          "internalType": "uint256",
          "name": "tokenId",
          "type": "uint256"
        }
      ],
      "name": "getImageBytes",
      "outputs": [
        {
          "internalType": "bytes",
          "name": "",
          "type": "bytes"
        }
      ],
      "stateMutability": "view",
      "type": "function"
    },
    {
      "inputs": [
        {
          "internalType": "address",
          "name": "account",
          "type": "address"
        }
      ],
      "name": "getPreview",
      "outputs": [
        {
          "internalType": "bytes",
          "name": "imageData",
          "type": "bytes"
        }
      ],
      "stateMutability": "view",
      "type": "function"
    },
    {
      "inputs": [
        {
          "internalType": "address",
          "name": "account",
          "type": "address"
        },
        {
          "internalType": "uint8",
          "name": "color",
          "type": "uint8"
        },
        {
          "internalType": "uint8",
          "name": "emoji",
          "type": "uint8"
        }
      ],
      "name": "getPreviewWithStyle",
      "outputs": [
        {
          "internalType": "bytes",
          "name": "bytesData",
          "type": "bytes"
        }
      ],
      "stateMutability": "view",
      "type": "function"
    },
    {
      "inputs": [
        {
          "internalType": "uint256",
          "name": "tokenId",
          "type": "uint256"
        }
      ],
      "name": "getTraitsBytes",
      "outputs": [
        {
          "internalType": "bytes",
          "name": "",
          "type": "bytes"
        }
      ],
      "stateMutability": "view",
      "type": "function"
    },
    {
      "inputs": [
        {
          "internalType": "address",
          "name": "user",
          "type": "address"
        },
        {
          "internalType": "uint256",
          "name": "roles",
          "type": "uint256"
        }
      ],
      "name": "grantRoles",
      "outputs": [],
      "stateMutability": "payable",
      "type": "function"
    },
    {
      "inputs": [
        {
          "internalType": "address",
          "name": "user",
          "type": "address"
        },
        {
          "internalType": "uint256",
          "name": "roles",
          "type": "uint256"
        }
      ],
      "name": "hasAllRoles",
      "outputs": [
        {
          "internalType": "bool",
          "name": "result",
          "type": "bool"
        }
      ],
      "stateMutability": "view",
      "type": "function"
    },
    {
      "inputs": [
        {
          "internalType": "address",
          "name": "user",
          "type": "address"
        },
        {
          "internalType": "uint256",
          "name": "roles",
          "type": "uint256"
        }
      ],
      "name": "hasAnyRole",
      "outputs": [
        {
          "internalType": "bool",
          "name": "result",
          "type": "bool"
        }
      ],
      "stateMutability": "view",
      "type": "function"
    },
    {
      "inputs": [
        {
          "internalType": "uint256",
          "name": "roles",
          "type": "uint256"
        }
      ],
      "name": "ordinalsFromRoles",
      "outputs": [
        {
          "internalType": "uint8[]",
          "name": "ordinals",
          "type": "uint8[]"
        }
      ],
      "stateMutability": "pure",
      "type": "function"
    },
    {
      "inputs": [],
      "name": "owner",
      "outputs": [
        {
          "internalType": "address",
          "name": "result",
          "type": "address"
        }
      ],
      "stateMutability": "view",
      "type": "function"
    },
    {
      "inputs": [
        {
          "internalType": "address",
          "name": "pendingOwner",
          "type": "address"
        }
      ],
      "name": "ownershipHandoverExpiresAt",
      "outputs": [
        {
          "internalType": "uint256",
          "name": "result",
          "type": "uint256"
        }
      ],
      "stateMutability": "view",
      "type": "function"
    },
    {
      "inputs": [],
      "name": "ownershipHandoverValidFor",
      "outputs": [
        {
          "internalType": "uint64",
          "name": "",
          "type": "uint64"
        }
      ],
      "stateMutability": "view",
      "type": "function"
    },
    {
      "inputs": [
        {
          "internalType": "bytes",
          "name": "input",
          "type": "bytes"
        }
      ],
      "name": "render",
      "outputs": [
        {
          "internalType": "string",
          "name": "",
          "type": "string"
        }
      ],
      "stateMutability": "view",
      "type": "function"
    },
    {
      "inputs": [],
      "name": "renounceOwnership",
      "outputs": [],
      "stateMutability": "payable",
      "type": "function"
    },
    {
      "inputs": [
        {
          "internalType": "uint256",
          "name": "roles",
          "type": "uint256"
        }
      ],
      "name": "renounceRoles",
      "outputs": [],
      "stateMutability": "payable",
      "type": "function"
    },
    {
      "inputs": [],
      "name": "requestOwnershipHandover",
      "outputs": [],
      "stateMutability": "payable",
      "type": "function"
    },
    {
      "inputs": [
        {
          "internalType": "address",
          "name": "user",
          "type": "address"
        },
        {
          "internalType": "uint256",
          "name": "roles",
          "type": "uint256"
        }
      ],
      "name": "revokeRoles",
      "outputs": [],
      "stateMutability": "payable",
      "type": "function"
    },
    {
      "inputs": [
        {
          "internalType": "uint8[]",
          "name": "ordinals",
          "type": "uint8[]"
        }
      ],
      "name": "rolesFromOrdinals",
      "outputs": [
        {
          "internalType": "uint256",
          "name": "roles",
          "type": "uint256"
        }
      ],
      "stateMutability": "pure",
      "type": "function"
    },
    {
      "inputs": [
        {
          "internalType": "address",
          "name": "user",
          "type": "address"
        }
      ],
      "name": "rolesOf",
      "outputs": [
        {
          "internalType": "uint256",
          "name": "roles",
          "type": "uint256"
        }
      ],
      "stateMutability": "view",
      "type": "function"
    },
    {
      "inputs": [
        {
          "components": [
            {
              "internalType": "string",
              "name": "name",
              "type": "string"
            },
            {
              "internalType": "string",
              "name": "description",
              "type": "string"
            },
            {
              "internalType": "string",
              "name": "image",
              "type": "string"
            },
            {
              "internalType": "string",
              "name": "externalLink",
              "type": "string"
            },
            {
              "internalType": "string",
              "name": "sellerFeeBasisPoints",
              "type": "string"
            },
            {
              "internalType": "string",
              "name": "feeRecipient",
              "type": "string"
            }
          ],
          "internalType": "struct ERC721Storage.ContractURI",
          "name": "contractURI",
          "type": "tuple"
        }
      ],
      "name": "setContractURI",
      "outputs": [],
      "stateMutability": "nonpayable",
      "type": "function"
    },
    {
      "inputs": [
        {
          "internalType": "address",
          "name": "_erc20TWABInstance",
          "type": "address"
        }
      ],
      "name": "setERC20TWABInstance",
      "outputs": [],
      "stateMutability": "nonpayable",
      "type": "function"
    },
    {
      "inputs": [
        {
          "internalType": "address",
          "name": "_erc721KDesignInstance",
          "type": "address"
        }
      ],
      "name": "setERC721KDesignInstance",
      "outputs": [],
      "stateMutability": "nonpayable",
      "type": "function"
    },
    {
      "inputs": [
        {
          "internalType": "address",
          "name": "_erc721KInstance",
          "type": "address"
        }
      ],
      "name": "setERC721KInstance",
      "outputs": [],
      "stateMutability": "nonpayable",
      "type": "function"
    },
    {
      "inputs": [
        {
          "internalType": "address",
          "name": "svgRender",
          "type": "address"
        }
      ],
      "name": "setSvgRender",
      "outputs": [],
      "stateMutability": "nonpayable",
      "type": "function"
    },
    {
      "inputs": [
        {
          "internalType": "address",
          "name": "traitsFetch",
          "type": "address"
        }
      ],
      "name": "setTraitsFetch",
      "outputs": [],
      "stateMutability": "nonpayable",
      "type": "function"
    },
    {
      "inputs": [
        {
          "internalType": "address",
          "name": "newOwner",
          "type": "address"
        }
      ],
      "name": "transferOwnership",
      "outputs": [],
      "stateMutability": "payable",
      "type": "function"
    }
  ],
  "transactionHash": "0x9670b124c580a306753aca2dab74a60007a6c7fc7ee58532029cdb738cea0850",
  "args": [
    "0x0E7F29dAEc47Ec5f74fe7381692C9eb4392A4BB1",
    "0x9d038Bdb6CefaD60451c9F816aa94eFfa9452E93",
    {
      "name": "Web3 Savings Cards",
      "description": "Powered by a Web3 Savings Protocol",
      "image": "https://cloudflare-ipfs.com/ipfs/QmXP6TRR8UDi7vQ5gxF4AhxHoRwQuj3Ku3AuDggjZMyXGo",
      "externalLink": "https://web3savings.network",
      "sellerFeeBasisPoints": "0",
      "feeRecipient": "0x0000000000000000000000000000000000000000"
    },
    "0xBF3C31027452F6f7ed0Ff6dAEA1F371C9F646aFc",
    "0xbA8B29723E1123CC5F48F0F933BE1D4C98e0D78E",
    "0x2791Bca1f2de4661ED88A30C99A7a9449Aa84174"
  ],
  "numDeployments": 1,
  "solcInputHash": "404f5463dd6ebc8ff1a6e382af5684f3",
  "bytecode": "0x60c060405260036080908152626236c560e81b60a052600c906200002490826200024e565b503480156200003257600080fd5b50604051620032b9380380620032b983398101604081905262000055916200042a565b600080546001600160a01b038089166001600160a01b0319928316179092556001805492881692909116919091179055835186908690869081906002908190620000a090826200024e565b5060208201516001820190620000b790826200024e565b5060408201516002820190620000ce90826200024e565b5060608201516003820190620000e590826200024e565b5060808201516004820190620000fc90826200024e565b5060a082015160058201906200011390826200024e565b506200012391503390506200016d565b5050600980546001600160a01b039586166001600160a01b031991821617909155600b805494861694821694909417909355506008805491909316911617905550620005bf915050565b6001600160a01b0316638b78c6d8198190558060007f8be0079c531659141344cd1fd0a4f28419497f9722a3daafe3b4186f6b6457e08180a350565b634e487b7160e01b600052604160045260246000fd5b600181811c90821680620001d457607f821691505b602082108103620001f557634e487b7160e01b600052602260045260246000fd5b50919050565b601f8211156200024957600081815260208120601f850160051c81016020861015620002245750805b601f850160051c820191505b81811015620002455782815560010162000230565b5050505b505050565b81516001600160401b038111156200026a576200026a620001a9565b62000282816200027b8454620001bf565b84620001fb565b602080601f831160018114620002ba5760008415620002a15750858301515b600019600386901b1c1916600185901b17855562000245565b600085815260208120601f198616915b82811015620002eb57888601518255948401946001909101908401620002ca565b50858210156200030a5787850151600019600388901b60f8161c191681555b5050505050600190811b01905550565b80516001600160a01b03811681146200033257600080fd5b919050565b60405160c081016001600160401b03811182821017156200035c576200035c620001a9565b60405290565b604051601f8201601f191681016001600160401b03811182821017156200038d576200038d620001a9565b604052919050565b600082601f830112620003a757600080fd5b81516001600160401b03811115620003c357620003c3620001a9565b6020620003d9601f8301601f1916820162000362565b8281528582848701011115620003ee57600080fd5b60005b838110156200040e578581018301518282018401528201620003f1565b83811115620004205760008385840101525b5095945050505050565b60008060008060008060c087890312156200044457600080fd5b6200044f876200031a565b95506200045f602088016200031a565b60408801519095506001600160401b03808211156200047d57600080fd5b9088019060c0828b0312156200049257600080fd5b6200049c62000337565b825182811115620004ac57600080fd5b620004ba8c82860162000395565b825250602083015182811115620004d057600080fd5b620004de8c82860162000395565b602083015250604083015182811115620004f757600080fd5b620005058c82860162000395565b6040830152506060830151828111156200051e57600080fd5b6200052c8c82860162000395565b6060830152506080830151828111156200054557600080fd5b620005538c82860162000395565b60808301525060a0830151828111156200056c57600080fd5b6200057a8c82860162000395565b60a083015250955062000593915050606088016200031a565b9250620005a3608088016200031a565b9150620005b360a088016200031a565b90509295509295509295565b612cea80620005cf6000396000f3fe60806040526004361061020f5760003560e01c8063715018a611610118578063c0ee32bc116100a0578063f009cec81161006f578063f009cec8146105e5578063f04e283e14610605578063f067961614610618578063f2fde38b14610638578063fee81cf41461064b57600080fd5b8063c0ee32bc14610565578063d12bcb1214610585578063d7533f02146105a7578063e75b8ac4146105c557600080fd5b80638da5cb5b116100e75780638da5cb5b146104ce5780639eda5e76146104e7578063a4cd869614610507578063a92569a914610525578063ae70ed131461054557600080fd5b8063715018a614610464578063725fa09c1461046c5780637359e41f1461048157806383bc303c146104ae57600080fd5b80632de948071161019b5780634aabb0781161016a5780634aabb078146103c5578063514e62fc146103e557806354d1f13d1461041c57806357e30f44146104245780636795a8741461044457600080fd5b80632de9480714610341578063316df61e146103725780633ee6fa92146103925780634a4ee7b1146103b257600080fd5b80631cd64df4116101e25780631cd64df4146102a057806325692962146102e757806325c28b4a146102ef5780632a1a8ec8146103215780632d08d6b71461021457600080fd5b80630976c5171461021457806313a661ed1461024a578063183a4f6e146102785780631c10893f1461028d575b600080fd5b34801561022057600080fd5b5061023461022f366004612032565b61067c565b60405161024191906120a7565b60405180910390f35b34801561025657600080fd5b5061026a61026536600461213e565b610702565b604051908152602001610241565b61028b610286366004612032565b610735565b005b61028b61029b3660046121ff565b610742565b3480156102ac57600080fd5b506102d76102bb3660046121ff565b60609190911b638b78c6d8176000908152602090205481161490565b6040519015158152602001610241565b61028b61076b565b3480156102fb57600080fd5b506001546001600160a01b03165b6040516001600160a01b039091168152602001610241565b34801561032d57600080fd5b50600954610309906001600160a01b031681565b34801561034d57600080fd5b5061026a61035c36600461222b565b60601b638b78c6d8176000908152602090205490565b34801561037e57600080fd5b5061023461038d3660046122c5565b6107bb565b34801561039e57600080fd5b5061028b6103ad36600461222b565b610837565b61028b6103c03660046121ff565b6108a7565b3480156103d157600080fd5b506102346103e0366004612301565b6108cc565b3480156103f157600080fd5b506102d76104003660046121ff565b60609190911b638b78c6d8176000908152602090205416151590565b61028b610e25565b34801561043057600080fd5b5061028b61043f366004612346565b610e62565b34801561045057600080fd5b50600a54610309906001600160a01b031681565b61028b610f2c565b34801561047857600080fd5b50610234610f7a565b34801561048d57600080fd5b506104a161049c366004612032565b610fda565b6040516102419190612466565b3480156104ba57600080fd5b506102346104c936600461222b565b611022565b3480156104da57600080fd5b50638b78c6d81954610309565b3480156104f357600080fd5b5061028b61050236600461222b565b61102f565b34801561051357600080fd5b506000546001600160a01b0316610309565b34801561053157600080fd5b50600854610309906001600160a01b031681565b34801561055157600080fd5b5061028b61056036600461222b565b61106c565b34801561057157600080fd5b5061028b61058036600461222b565b6110d5565b34801561059157600080fd5b5061059a611112565b60405161024191906124ad565b3480156105b357600080fd5b506040516202a3008152602001610241565b3480156105d157600080fd5b5061028b6105e036600461222b565b6114c9565b3480156105f157600080fd5b50600b54610309906001600160a01b031681565b61028b61061336600461222b565b611506565b34801561062457600080fd5b50610234610633366004612565565b611588565b61028b61064636600461222b565b6116d1565b34801561065757600080fd5b5061026a61066636600461222b565b60601b63389a75e1176000908152602090205490565b600a546040516331a9108f60e11b8152600481018390526060916000916001600160a01b0390911690636352211e90602401602060405180830381865afa1580156106cb573d6000803e3d6000fd5b505050506040513d601f19601f820116820180604052508101906106ef91906125d1565b90506106fb8382611738565b9392505050565b600060208201825160051b81015b80821461072e57600160ff8351161b83179250602082019150610710565b5050919050565b61073f3382611c87565b50565b638b78c6d81954331461075d576382b429006000526004601cfd5b6107678282611cd8565b5050565b60006202a3006001600160401b03164201905063389a75e13360601b1760005280602060002055337fdbf36a107da19e49527a7176a1babf963b4b0ff8cde35ee35d6cd8f1f9ac7e1d600080a250565b6000546040516318b6fb0f60e11b81526060916001600160a01b03169063316df61e906107ec9085906004016120a7565b600060405180830381865afa158015610809573d6000803e3d6000fd5b505050506040513d6000823e601f3d908101601f19168201604052610831919081019061261e565b92915050565b638b78c6d819543314610852576382b429006000526004601cfd5b600180546001600160a01b0319166001600160a01b0383169081179091556040519081527f10c0817f42b2182992d55b707430b153f12e59d7e54a975bfec790497dd7f63f906020015b60405180910390a150565b638b78c6d8195433146108c2576382b429006000526004601cfd5b6107678282611c87565b604080516060818101835260008083526020830181905292820183905291906108f3611fed565b600b54604051639f571e0b60e01b815260ff881660048201526001600160a01b0390911690639f571e0b90602401600060405180830381865afa15801561093e573d6000803e3d6000fd5b505050506040513d6000823e601f3d908101601f19168201604052610966919081019061261e565b60e0820152600b5460405163a96cc2f960e01b815260ff871660048201526001600160a01b039091169063a96cc2f990602401600060405180830381865afa1580156109b6573d6000803e3d6000fd5b505050506040513d6000823e601f3d908101601f191682016040526109de919081019061261e565b60c0820181905251600003610a0e57604080518082019091526004815263f09f92b360e01b602082015260c08201525b8060e0015151600003610aaf57600c8054610a2890612666565b80601f0160208091040260200160405190810160405280929190818152602001828054610a5490612666565b8015610aa15780601f10610a7657610100808354040283529160200191610aa1565b820191906000526020600020905b815481529060010190602001808311610a8457829003601f168201915b50505050508160e001819052505b6009546001600160a01b031615610db6576009546040516370a0823160e01b81526001600160a01b038981166004830152909116906370a0823190602401602060405180830381865afa158015610b0a573d6000803e3d6000fd5b505050506040513d601f19601f82011682018060405250810190610b2e91906126a0565b600954604051630ab3ad4d60e21b81526001600160a01b038a81166004830152929550911690632aceb53490602401606060405180830381865afa158015610b7a573d6000803e3d6000fd5b505050506040513d601f19601f82011682018060405250810190610b9e91906126cc565b60095490925042906001600160a01b03166398b16f3689610bc26212750085612745565b846040518463ffffffff1660e01b8152600401610be19392919061276a565b602060405180830381865afa158015610bfe573d6000803e3d6000fd5b505050506040513d601f19601f82011682018060405250810190610c2291906126a0565b60408301526009546001600160a01b03166398b16f3689610c466249d40042612745565b846040518463ffffffff1660e01b8152600401610c659392919061276a565b602060405180830381865afa158015610c82573d6000803e3d6000fd5b505050506040513d601f19601f82011682018060405250810190610ca691906126a0565b60608301526009546001600160a01b03166398b16f3689610cca62eff10042612745565b846040518463ffffffff1660e01b8152600401610ce99392919061276a565b602060405180830381865afa158015610d06573d6000803e3d6000fd5b505050506040513d601f19601f82011682018060405250810190610d2a91906126a0565b60808301526009546001600160a01b03166398b16f3689610d4f6301dfe20042612745565b846040518463ffffffff1660e01b8152600401610d6e9392919061276a565b602060405180830381865afa158015610d8b573d6000803e3d6000fd5b505050506040513d601f19601f82011682018060405250810190610daf91906126a0565b60a0830152505b86600860009054906101000a90046001600160a01b03168484600001518460400151856060015186608001518760a001518860c001518960e00151604051602001610e0a9a99989796959493929190612794565b60405160208183030381529060405293505050509392505050565b63389a75e13360601b176000526000602060002055337ffa7b8eab7da67f412cc9575ed43464468f9bfbae89d1675917346ca6d8fe3c92600080a2565b638b78c6d819543314610e7d576382b429006000526004601cfd5b805181906002908190610e909082612869565b5060208201516001820190610ea59082612869565b5060408201516002820190610eba9082612869565b5060608201516003820190610ecf9082612869565b5060808201516004820190610ee49082612869565b5060a08201516005820190610ef99082612869565b509050507f03a10335d532669eac03b3b7e4ce44aff7f8cb14b7aa397c653fdcb40ae06bec8160405161089c91906124ad565b638b78c6d819543314610f47576382b429006000526004601cfd5b6000337f8be0079c531659141344cd1fd0a4f28419497f9722a3daafe3b4186f6b6457e0600080a36000638b78c6d81955565b604051606090610fb690610fa29060029060039060049060059060069060079060200161299b565b604051602081830303815290604052611d24565b604051602001610fc69190612b21565b604051602081830303815290604052905090565b606060206040510160005b8082526001841660051b820191508360011c9350831561100757600101610fe5565b5060405191508060405260208201810360051c825250919050565b6060610831600083611738565b638b78c6d81954331461104a576382b429006000526004601cfd5b600a80546001600160a01b0319166001600160a01b0392909216919091179055565b638b78c6d819543314611087576382b429006000526004601cfd5b600080546001600160a01b0319166001600160a01b0383169081179091556040519081527f3c2715cb5e4b39dd4af38ac12bb292a030fb6a063dbd5467ed49da665bcaa9739060200161089c565b638b78c6d8195433146110f0576382b429006000526004601cfd5b600b80546001600160a01b0319166001600160a01b0392909216919091179055565b61114b6040518060c001604052806060815260200160608152602001606081526020016060815260200160608152602001606081525090565b60026040518060c001604052908160008201805461116890612666565b80601f016020809104026020016040519081016040528092919081815260200182805461119490612666565b80156111e15780601f106111b6576101008083540402835291602001916111e1565b820191906000526020600020905b8154815290600101906020018083116111c457829003601f168201915b505050505081526020016001820180546111fa90612666565b80601f016020809104026020016040519081016040528092919081815260200182805461122690612666565b80156112735780601f1061124857610100808354040283529160200191611273565b820191906000526020600020905b81548152906001019060200180831161125657829003601f168201915b5050505050815260200160028201805461128c90612666565b80601f01602080910402602001604051908101604052809291908181526020018280546112b890612666565b80156113055780601f106112da57610100808354040283529160200191611305565b820191906000526020600020905b8154815290600101906020018083116112e857829003601f168201915b5050505050815260200160038201805461131e90612666565b80601f016020809104026020016040519081016040528092919081815260200182805461134a90612666565b80156113975780601f1061136c57610100808354040283529160200191611397565b820191906000526020600020905b81548152906001019060200180831161137a57829003601f168201915b505050505081526020016004820180546113b090612666565b80601f01602080910402602001604051908101604052809291908181526020018280546113dc90612666565b80156114295780601f106113fe57610100808354040283529160200191611429565b820191906000526020600020905b81548152906001019060200180831161140c57829003601f168201915b5050505050815260200160058201805461144290612666565b80601f016020809104026020016040519081016040528092919081815260200182805461146e90612666565b80156114bb5780601f10611490576101008083540402835291602001916114bb565b820191906000526020600020905b81548152906001019060200180831161149e57829003601f168201915b505050505081525050905090565b638b78c6d8195433146114e4576382b429006000526004601cfd5b600980546001600160a01b0319166001600160a01b0392909216919091179055565b638b78c6d819543314611521576382b429006000526004601cfd5b8060601b60601c905063389a75e18160601b176000526020600020805442111561155357636f5e88186000526004601cfd5b600081555080337f8be0079c531659141344cd1fd0a4f28419497f9722a3daafe3b4186f6b6457e0600080a3638b78c6d81955565b600080546040516318b6fb0f60e11b8152606092916001600160a01b03169063316df61e906115bb9087906004016120a7565b600060405180830381865afa1580156115d8573d6000803e3d6000fd5b505050506040513d6000823e601f3d908101601f19168201604052611600919081019061261e565b60015460405163f6559a6b60e01b81529192506000916001600160a01b039091169063f6559a6b906116369087906004016120a7565b600060405180830381865afa158015611653573d6000803e3d6000fd5b505050506040513d6000823e601f3d908101601f1916820160405261167b919081019061261e565b90506116a761168987611d32565b61169288611d63565b8484604051602001610fa29493929190612b66565b6040516020016116b79190612b21565b604051602081830303815290604052925050509392505050565b638b78c6d8195433146116ec576382b429006000526004601cfd5b6001600160a01b03168061170857637448fbae6000526004601cfd5b80337f8be0079c531659141344cd1fd0a4f28419497f9722a3daafe3b4186f6b6457e0600080a3638b78c6d81955565b6040805160608181018352600080835260208301819052928201839052919061175f611fed565b600b5460405163be7d97b360e01b8152600481018890526001600160a01b039091169063be7d97b390602401600060405180830381865afa1580156117a8573d6000803e3d6000fd5b505050506040513d6000823e601f3d908101601f191682016040526117d0919081019061261e565b60c0820152600b54604051634002bdcd60e11b8152600481018890526001600160a01b03909116906380057b9a90602401600060405180830381865afa15801561181e573d6000803e3d6000fd5b505050506040513d6000823e601f3d908101601f19168201604052611846919081019061261e565b60e082015260c08101515160000361187957604080518082019091526004815263f09f92b360e01b602082015260c08201525b8060e001515160000361191a57600c805461189390612666565b80601f01602080910402602001604051908101604052809291908181526020018280546118bf90612666565b801561190c5780601f106118e15761010080835404028352916020019161190c565b820191906000526020600020905b8154815290600101906020018083116118ef57829003601f168201915b50505050508160e001819052505b6009546001600160a01b031615611c21576009546040516370a0823160e01b81526001600160a01b038781166004830152909116906370a0823190602401602060405180830381865afa158015611975573d6000803e3d6000fd5b505050506040513d601f19601f8201168201806040525081019061199991906126a0565b600954604051630ab3ad4d60e21b81526001600160a01b038881166004830152929550911690632aceb53490602401606060405180830381865afa1580156119e5573d6000803e3d6000fd5b505050506040513d601f19601f82011682018060405250810190611a0991906126cc565b60095490925042906001600160a01b03166398b16f3687611a2d6212750085612745565b846040518463ffffffff1660e01b8152600401611a4c9392919061276a565b602060405180830381865afa158015611a69573d6000803e3d6000fd5b505050506040513d601f19601f82011682018060405250810190611a8d91906126a0565b60408301526009546001600160a01b03166398b16f3687611ab16249d40042612745565b846040518463ffffffff1660e01b8152600401611ad09392919061276a565b602060405180830381865afa158015611aed573d6000803e3d6000fd5b505050506040513d601f19601f82011682018060405250810190611b1191906126a0565b60608301526009546001600160a01b03166398b16f3687611b3562eff10042612745565b846040518463ffffffff1660e01b8152600401611b549392919061276a565b602060405180830381865afa158015611b71573d6000803e3d6000fd5b505050506040513d601f19601f82011682018060405250810190611b9591906126a0565b60808301526009546001600160a01b03166398b16f3687611bba6301dfe20042612745565b846040518463ffffffff1660e01b8152600401611bd99392919061276a565b602060405180830381865afa158015611bf6573d6000803e3d6000fd5b505050506040513d601f19601f82011682018060405250810190611c1a91906126a0565b60a0830152505b60085482516040808401516060850151608086015160a087015160c088015160e08901519551611c6d988e986001600160a01b03909116978d9791969195919491939192602001612794565b604051602081830303815290604052935050505092915050565b638b78c6d88260601b176000526020600020805482811681189050808255808460601b60601c7f715ad5ce61fc9595c7b415289d59cf203f23a94fa06f04af7e489a0a76e1fe26600080a350505050565b638b78c6d88260601b17600052602060002081815417808255808460601b60601c7f715ad5ce61fc9595c7b415289d59cf203f23a94fa06f04af7e489a0a76e1fe26600080a350505050565b606061083182600080611d84565b6060611d3d82611e83565b604051602001611d4d9190612c57565b6040516020818303038152906040529050919050565b6060604051806060016040528060228152602001612c936022913992915050565b606083518015611e7b576003600282010460021b60405192507f4142434445464748494a4b4c4d4e4f505152535455565758595a616263646566601f526102308515027f6768696a6b6c6d6e6f707172737475767778797a303132333435363738392d5f03603f52602083018181015b6003880197508751603f8160121c16518353603f81600c1c16516001840153603f8160061c16516002840153603f811651600384015350600482019150808210611df45760038406868015611e5457600182148215150185038752611e6c565b603d821515850353603d6001831460011b8503538487525b5050601f01601f191660405250505b509392505050565b60606000611e9083611f15565b60010190506000816001600160401b03811115611eaf57611eaf6120ba565b6040519080825280601f01601f191660200182016040528015611ed9576020820181803683370190505b5090508181016020015b600019016f181899199a1a9b1b9c1cb0b131b232b360811b600a86061a8153600a8504945084611ee357509392505050565b60008072184f03e93ff9f4daa797ed6e38ed64bf6a1f0160401b8310611f545772184f03e93ff9f4daa797ed6e38ed64bf6a1f0160401b830492506040015b6d04ee2d6d415b85acef81000000008310611f80576d04ee2d6d415b85acef8100000000830492506020015b662386f26fc100008310611f9e57662386f26fc10000830492506010015b6305f5e1008310611fb6576305f5e100830492506008015b6127108310611fca57612710830492506004015b60648310611fdc576064830492506002015b600a83106108315760010192915050565b60405180610100016040528060008152602001600081526020016000815260200160008152602001600081526020016000815260200160608152602001606081525090565b60006020828403121561204457600080fd5b5035919050565b60005b8381101561206657818101518382015260200161204e565b83811115612075576000848401525b50505050565b6000815180845261209381602086016020860161204b565b601f01601f19169290920160200192915050565b6020815260006106fb602083018461207b565b634e487b7160e01b600052604160045260246000fd5b60405160c081016001600160401b03811182821017156120f2576120f26120ba565b60405290565b604051601f8201601f191681016001600160401b0381118282101715612120576121206120ba565b604052919050565b803560ff8116811461213957600080fd5b919050565b6000602080838503121561215157600080fd5b82356001600160401b038082111561216857600080fd5b818501915085601f83011261217c57600080fd5b81358181111561218e5761218e6120ba565b8060051b915061219f8483016120f8565b81815291830184019184810190888411156121b957600080fd5b938501935b838510156121de576121cf85612128565b825293850193908501906121be565b98975050505050505050565b6001600160a01b038116811461073f57600080fd5b6000806040838503121561221257600080fd5b823561221d816121ea565b946020939093013593505050565b60006020828403121561223d57600080fd5b81356106fb816121ea565b60006001600160401b03821115612261576122616120ba565b50601f01601f191660200190565b600082601f83011261228057600080fd5b813561229361228e82612248565b6120f8565b8181528460208386010111156122a857600080fd5b816020850160208301376000918101602001919091529392505050565b6000602082840312156122d757600080fd5b81356001600160401b038111156122ed57600080fd5b6122f98482850161226f565b949350505050565b60008060006060848603121561231657600080fd5b8335612321816121ea565b925061232f60208501612128565b915061233d60408501612128565b90509250925092565b60006020828403121561235857600080fd5b81356001600160401b038082111561236f57600080fd5b9083019060c0828603121561238357600080fd5b61238b6120d0565b82358281111561239a57600080fd5b6123a68782860161226f565b8252506020830135828111156123bb57600080fd5b6123c78782860161226f565b6020830152506040830135828111156123df57600080fd5b6123eb8782860161226f565b60408301525060608301358281111561240357600080fd5b61240f8782860161226f565b60608301525060808301358281111561242757600080fd5b6124338782860161226f565b60808301525060a08301358281111561244b57600080fd5b6124578782860161226f565b60a08301525095945050505050565b6020808252825182820181905260009190848201906040850190845b818110156124a157835160ff1683529284019291840191600101612482565b50909695505050505050565b602081526000825160c060208401526124c960e084018261207b565b90506020840151601f19808584030160408601526124e7838361207b565b92506040860151915080858403016060860152612504838361207b565b92506060860151915080858403016080860152612521838361207b565b925060808601519150808584030160a086015261253e838361207b565b925060a08601519150808584030160c08601525061255c828261207b565b95945050505050565b60008060006060848603121561257a57600080fd5b8335925060208401356001600160401b038082111561259857600080fd5b6125a48783880161226f565b935060408601359150808211156125ba57600080fd5b506125c78682870161226f565b9150509250925092565b6000602082840312156125e357600080fd5b81516106fb816121ea565b60006125fc61228e84612248565b905082815283838301111561261057600080fd5b6106fb83602083018461204b565b60006020828403121561263057600080fd5b81516001600160401b0381111561264657600080fd5b8201601f8101841361265757600080fd5b6122f9848251602084016125ee565b600181811c9082168061267a57607f821691505b60208210810361269a57634e487b7160e01b600052602260045260246000fd5b50919050565b6000602082840312156126b257600080fd5b5051919050565b805162ffffff8116811461213957600080fd5b6000606082840312156126de57600080fd5b604051606081018181106001600160401b0382111715612700576127006120ba565b60405282516001600160d01b038116811461271a57600080fd5b8152612728602084016126b9565b6020820152612739604084016126b9565b60408201529392505050565b60008282101561276557634e487b7160e01b600052601160045260246000fd5b500390565b6001600160a01b039390931683526001600160401b03918216602084015216604082015260600190565b6001600160a01b038b811682528a166020820152604081018990526001600160d01b03881660608201526080810187905260a0810186905260c0810185905260e0810184905261014061010082018190526000906127f48382018661207b565b9050828103610120840152612809818561207b565b9d9c50505050505050505050505050565b601f82111561286457600081815260208120601f850160051c810160208610156128415750805b601f850160051c820191505b818110156128605782815560010161284d565b5050505b505050565b81516001600160401b03811115612882576128826120ba565b612896816128908454612666565b8461281a565b602080601f8311600181146128cb57600084156128b35750858301515b600019600386901b1c1916600185901b178555612860565b600085815260208120601f198616915b828110156128fa578886015182559484019460019091019084016128db565b50858210156129185787850151600019600388901b60f8161c191681555b5050505050600190811b01905550565b6000815461293581612666565b6001828116801561294d576001811461296257612991565b60ff1984168752821515830287019450612991565b8560005260208060002060005b858110156129885781548a82015290840190820161296f565b50505082870194505b5050505092915050565b673d913730b6b2911d60c11b8152601160f91b600882015260006129c26009830189612928565b61088b60f21b815260026129e88183016d113232b9b1b934b83a34b7b7111d60911b9052565b601160f91b60108301526129ff601183018a612928565b61088b60f21b81529150671134b6b0b3b2911d60c11b82820152601160f91b600a830152612a30600b830189612928565b61088b60f21b815291506e1132bc3a32b93730b62634b735911d60891b82820152601160f91b6011830152612a686012830188612928565b61088b60f21b815291507f2273656c6c65724665654261736973506f696e7473223a00000000000000000082820152601160f91b6019830152612aae601a830187612928565b61088b60f21b815291506e113332b2a932b1b4b834b2b73a111d60891b82820152601160f91b6011830152612ae66012830186612928565b601160f91b8152607d60f81b6001820152019998505050505050505050565b60008151612b1781856020860161204b565b9290920192915050565b7f646174613a6170706c69636174696f6e2f6a736f6e3b6261736536342c000000815260008251612b5981601d85016020870161204b565b91909101601d0192915050565b673d913730b6b2911d60c11b8152601160f91b60088201528451600090612b94816009850160208a0161204b565b61088b60f21b6009918401918201526d113232b9b1b934b83a34b7b7111d60911b600b820152612bca60198201601160f91b9052565b612bd7601a820187612b05565b61088b60f21b81529050671134b6b0b3b2911d60c11b6002820152601160f91b600a820152612c09600b820186612b05565b61088b60f21b815290506e2261747472696275746573223a205b60881b6002820152612c386011820185612b05565b605d60f81b8152607d60f81b6001820152600201979650505050505050565b725765623320536176696e67732043617264202360681b815260008251612c8581601385016020870161204b565b919091016013019291505056fe4d656d626572206f6620746865205765623320536176696e6773204e6574776f726ba264697066735822122097be665b025a0e53c41277ec86a9d78d740268668b2b4de31a5ee36d05f1ee9764736f6c634300080f0033",
  "devdoc": {
    "errors": {
      "NewOwnerIsZeroAddress()": [
        {
          "details": "The `newOwner` cannot be the zero address."
        }
      ],
      "NoHandoverRequest()": [
        {
          "details": "The `pendingOwner` does not have a valid handover request."
        }
      ]
    },
    "kind": "dev",
    "methods": {
      "cancelOwnershipHandover()": {
        "details": "Cancels the two-step ownership handover to the caller, if any."
      },
      "completeOwnershipHandover(address)": {
        "details": "Allows the owner to complete the two-step ownership handover to `pendingOwner`. Reverts if there is no existing ownership handover requested by `pendingOwner`."
      },
      "grantRoles(address,uint256)": {
        "details": "Allows the owner to grant `user` `roles`. If the `user` already has a role, then it will be an no-op for the role."
      },
      "hasAllRoles(address,uint256)": {
        "details": "Returns whether `user` has all of `roles`."
      },
      "hasAnyRole(address,uint256)": {
        "details": "Returns whether `user` has any of `roles`."
      },
      "ordinalsFromRoles(uint256)": {
        "details": "Convenience function to return an array of `ordinals` from the `roles` bitmap. This is meant for frontends like Etherscan, and is therefore not fully optimized. Not recommended to be called on-chain."
      },
      "owner()": {
        "details": "Returns the owner of the contract."
      },
      "ownershipHandoverExpiresAt(address)": {
        "details": "Returns the expiry timestamp for the two-step ownership handover to `pendingOwner`."
      },
      "ownershipHandoverValidFor()": {
        "details": "Returns how long a two-step ownership handover is valid for in seconds."
      },
      "renounceOwnership()": {
        "details": "Allows the owner to renounce their ownership."
      },
      "renounceRoles(uint256)": {
        "details": "Allow the caller to remove their own roles. If the caller does not have a role, then it will be an no-op for the role."
      },
      "requestOwnershipHandover()": {
        "details": "Request a two-step ownership handover to the caller. The request will be automatically expire in 48 hours (172800 seconds) by default."
      },
      "revokeRoles(address,uint256)": {
        "details": "Allows the owner to remove `user` `roles`. If the `user` does not have a role, then it will be an no-op for the role."
      },
      "rolesFromOrdinals(uint8[])": {
        "details": "Convenience function to return a `roles` bitmap from an array of `ordinals`. This is meant for frontends like Etherscan, and is therefore not fully optimized. Not recommended to be called on-chain."
      },
      "rolesOf(address)": {
        "details": "Returns the roles of `user`."
      },
      "transferOwnership(address)": {
        "details": "Allows the owner to transfer the ownership to `newOwner`."
      }
    },
    "version": 1
  },
  "userdoc": {
    "kind": "user",
    "methods": {
      "erc20TWABInstance()": {
        "notice": "Smart Contact Instance(s)"
      },
      "getImageBytes(uint256)": {
        "notice": "=================================== Getters ==================================="
      },
      "setERC721KInstance(address)": {
        "notice": "=================================== Setters ==================================="
      }
    },
    "version": 1
  },
  "storageLayout": {
    "storage": [
      {
        "astId": 3215,
        "contract": "contracts/CardStorage.sol:CardStorage",
        "label": "svgRenderInstance",
        "offset": 0,
        "slot": "0",
        "type": "t_address"
      },
      {
        "astId": 3217,
        "contract": "contracts/CardStorage.sol:CardStorage",
        "label": "traitsFetchInstance",
        "offset": 0,
        "slot": "1",
        "type": "t_address"
      },
      {
        "astId": 3220,
        "contract": "contracts/CardStorage.sol:CardStorage",
        "label": "_contractURI",
        "offset": 0,
        "slot": "2",
        "type": "t_struct(ContractURI)3233_storage"
      },
      {
        "astId": 2162,
        "contract": "contracts/CardStorage.sol:CardStorage",
        "label": "assetUnderlying",
        "offset": 0,
        "slot": "8",
        "type": "t_address"
      },
      {
        "astId": 2165,
        "contract": "contracts/CardStorage.sol:CardStorage",
        "label": "erc20TWABInstance",
        "offset": 0,
        "slot": "9",
        "type": "t_address"
      },
      {
        "astId": 2167,
        "contract": "contracts/CardStorage.sol:CardStorage",
        "label": "erc721KInstance",
        "offset": 0,
        "slot": "10",
        "type": "t_address"
      },
      {
        "astId": 2169,
        "contract": "contracts/CardStorage.sol:CardStorage",
        "label": "erc721KDesignInstance",
        "offset": 0,
        "slot": "11",
        "type": "t_address"
      },
      {
        "astId": 2172,
        "contract": "contracts/CardStorage.sol:CardStorage",
        "label": "DEFAULT_COLOR",
        "offset": 0,
        "slot": "12",
        "type": "t_bytes_storage"
      },
      {
        "astId": 2176,
        "contract": "contracts/CardStorage.sol:CardStorage",
        "label": "_name",
        "offset": 0,
        "slot": "13",
        "type": "t_mapping(t_uint256,t_string_storage)"
      },
      {
        "astId": 2180,
        "contract": "contracts/CardStorage.sol:CardStorage",
        "label": "_emojiMap",
        "offset": 0,
        "slot": "14",
        "type": "t_mapping(t_uint256,t_string_storage)"
      }
    ],
    "types": {
      "t_address": {
        "encoding": "inplace",
        "label": "address",
        "numberOfBytes": "20"
      },
      "t_bytes_storage": {
        "encoding": "bytes",
        "label": "bytes",
        "numberOfBytes": "32"
      },
      "t_mapping(t_uint256,t_string_storage)": {
        "encoding": "mapping",
        "key": "t_uint256",
        "label": "mapping(uint256 => string)",
        "numberOfBytes": "32",
        "value": "t_string_storage"
      },
      "t_string_storage": {
        "encoding": "bytes",
        "label": "string",
        "numberOfBytes": "32"
      },
      "t_struct(ContractURI)3233_storage": {
        "encoding": "inplace",
        "label": "struct ERC721Storage.ContractURI",
        "members": [
          {
            "astId": 3222,
            "contract": "contracts/CardStorage.sol:CardStorage",
            "label": "name",
            "offset": 0,
            "slot": "0",
            "type": "t_string_storage"
          },
          {
            "astId": 3224,
            "contract": "contracts/CardStorage.sol:CardStorage",
            "label": "description",
            "offset": 0,
            "slot": "1",
            "type": "t_string_storage"
          },
          {
            "astId": 3226,
            "contract": "contracts/CardStorage.sol:CardStorage",
            "label": "image",
            "offset": 0,
            "slot": "2",
            "type": "t_string_storage"
          },
          {
            "astId": 3228,
            "contract": "contracts/CardStorage.sol:CardStorage",
            "label": "externalLink",
            "offset": 0,
            "slot": "3",
            "type": "t_string_storage"
          },
          {
            "astId": 3230,
            "contract": "contracts/CardStorage.sol:CardStorage",
            "label": "sellerFeeBasisPoints",
            "offset": 0,
            "slot": "4",
            "type": "t_string_storage"
          },
          {
            "astId": 3232,
            "contract": "contracts/CardStorage.sol:CardStorage",
            "label": "feeRecipient",
            "offset": 0,
            "slot": "5",
            "type": "t_string_storage"
          }
        ],
        "numberOfBytes": "192"
      },
      "t_uint256": {
        "encoding": "inplace",
        "label": "uint256",
        "numberOfBytes": "32"
      }
    }
  }
}