{
  "address": "0x9d038Bdb6CefaD60451c9F816aa94eFfa9452E93",
  "abi": [
    {
      "inputs": [],
      "stateMutability": "nonpayable",
      "type": "constructor"
    },
    {
      "inputs": [],
      "name": "Unauthorized",
      "type": "error"
    },
    {
      "anonymous": false,
      "inputs": [
        {
          "indexed": true,
          "internalType": "address",
          "name": "user",
          "type": "address"
        },
        {
          "indexed": true,
          "internalType": "address",
          "name": "newOwner",
          "type": "address"
        }
      ],
      "name": "OwnershipTransferred",
      "type": "event"
    },
    {
      "inputs": [
        {
          "internalType": "bytes",
          "name": "input",
          "type": "bytes"
        }
      ],
      "name": "fetch",
      "outputs": [
        {
          "internalType": "string",
          "name": "",
          "type": "string"
        }
      ],
      "stateMutability": "view",
      "type": "function"
    },
    {
      "inputs": [],
      "name": "owner",
      "outputs": [
        {
          "internalType": "address",
          "name": "",
          "type": "address"
        }
      ],
      "stateMutability": "view",
      "type": "function"
    },
    {
      "inputs": [
        {
          "internalType": "address",
          "name": "newOwner",
          "type": "address"
        }
      ],
      "name": "transferOwnership",
      "outputs": [],
      "stateMutability": "payable",
      "type": "function"
    }
  ],
  "transactionHash": "0x158ffa28f6fb4e1852b03685ce3518185fceb7f65d92dad669896a2c91bc338f",
  "args": [],
  "numDeployments": 1,
  "solcInputHash": "404f5463dd6ebc8ff1a6e382af5684f3",
  "bytecode": "0x608060405234801561001057600080fd5b50600080546001600160a01b031916339081178255604051909182917f8be0079c531659141344cd1fd0a4f28419497f9722a3daafe3b4186f6b6457e0908290a3506108bd806100616000396000f3fe6080604052600436106100345760003560e01c80638da5cb5b14610039578063f2fde38b14610076578063f6559a6b1461008b575b600080fd5b34801561004557600080fd5b50600054610059906001600160a01b031681565b6040516001600160a01b0390911681526020015b60405180910390f35b610089610084366004610491565b6100b8565b005b34801561009757600080fd5b506100ab6100a6366004610524565b61012d565b60405161006d91906105d4565b6000546001600160a01b031633146100e2576040516282b42960e81b815260040160405180910390fd5b600080546001600160a01b0319166001600160a01b0383169081178255604051909133917f8be0079c531659141344cd1fd0a4f28419497f9722a3daafe3b4186f6b6457e09190a350565b60606000806000806000806000806000808b8060200190518101906101529190610607565b9950995099509950995099509950995099509950600061017c8b6001600160a01b03166014610377565b905060006101948b6001600160a01b03166014610377565b90506101bd6040518060400160405280600581526020016437bbb732b960d91b81525083610409565b6101e460405180604001604052806005815260200164185cdcd95d60da1b81525083610409565b6102156040518060400160405280600781526020016662616c616e636560c81b8152506102108e610435565b610409565b610240604051806040016040528060068152602001656368616e636560d01b8152506102108e610435565b6102756040518060400160405280601081526020016f61766742616c616e6365325765656b7360801b8152506102108e610435565b6102aa6040518060400160405280601081526020016f61766742616c616e6365385765656b7360801b8152506102108e610435565b6102e06040518060400160405280601181526020017061766742616c616e636532365765656b7360781b8152506102108e610435565b6103166040518060400160405280601181526020017061766742616c616e636535325765656b7360781b8152506102108e610435565b61033d60405180604001604052806005815260200164656d6f6a6960d81b8152508d610409565b6040516020016103559998979695949392919061070a565b6040516020818303038152906040529c50505050505050505050505050919050565b60408051601f196062600185901b01811690910191829052600091019081526f30313233343536373839616263646566600f5280835b600f8116516001198401936000190153600f8160041c165183536000199093019260081c836103ad5780156103ea57632194895a6000526004601cfd5b50613078601f1983015281900360020160211990910190815292915050565b6060828260405160200161041e929190610804565b604051602081830303815290604052905092915050565b606060a06040510180604052602081039150506000815280825b600183039250600a81066030018353600a90048061044f5750819003601f19909101908152919050565b6001600160a01b038116811461048e57600080fd5b50565b6000602082840312156104a357600080fd5b81356104ae81610479565b9392505050565b634e487b7160e01b600052604160045260246000fd5b604051601f8201601f1916810167ffffffffffffffff811182821017156104f4576104f46104b5565b604052919050565b600067ffffffffffffffff821115610516576105166104b5565b50601f01601f191660200190565b60006020828403121561053657600080fd5b813567ffffffffffffffff81111561054d57600080fd5b8201601f8101841361055e57600080fd5b803561057161056c826104fc565b6104cb565b81815285602083850101111561058657600080fd5b81602084016020830137600091810160200191909152949350505050565b60005b838110156105bf5781810151838201526020016105a7565b838111156105ce576000848401525b50505050565b60208152600082518060208401526105f38160408501602087016105a4565b601f01601f19169190910160400192915050565b6000806000806000806000806000806101408b8d03121561062757600080fd5b8a5161063281610479565b60208c0151909a5061064381610479565b8099505060408b0151975060608b0151965060808b0151955060a08b0151945060c08b0151935060e08b015192506101008b015167ffffffffffffffff81111561068c57600080fd5b8b01601f81018d1361069d57600080fd5b80516106ab61056c826104fc565b8181528e60208385010111156106c057600080fd5b6106d18260208301602086016105a4565b8094505050506101208b015190509295989b9194979a5092959850565b600081516107008185602086016105a4565b9290920192915050565b60008a5161071c818460208f016105a4565b600b60fa1b9083019081528a5161073a816001840160208f016105a4565b600b60fa1b60019290910191820152895161075c816002840160208e016105a4565b600b60fa1b60029290910191820152885161077e816003840160208d016105a4565b0161078f60038201600b60fa1b9052565b61079c60048201896106ee565b600b60fa1b815290506107b260018201886106ee565b600b60fa1b815290506107c860018201876106ee565b600b60fa1b815290506107de60018201866106ee565b600b60fa1b815290506107f460018201856106ee565b9c9b505050505050505050505050565b6e3d913a3930b4ba2fba3cb832911d1160891b8152825160009061082f81600f8501602088016105a4565b61088b60f21b600f9184019182015267113b30b63ab2911d60c11b6011820152601160f91b6019820152835161086c81601a8401602088016105a4565b61227d60f01b601a9290910191820152601c0194935050505056fea2646970667358221220985dc185bc0989884e9a92f81fb03c5d867cb137639886973a5b641a4f799b5164736f6c634300080f0033",
  "devdoc": {
    "author": "Kames Geraghty",
    "kind": "dev",
    "methods": {},
    "title": "CardTraits",
    "version": 1
  },
  "userdoc": {
    "errors": {
      "Unauthorized()": [
        {
          "notice": "----------------------------------------------------------------------- Custom Errors -----------------------------------------------------------------------"
        }
      ]
    },
    "events": {
      "OwnershipTransferred(address,address)": {
        "notice": "----------------------------------------------------------------------- Events -----------------------------------------------------------------------"
      }
    },
    "kind": "user",
    "methods": {
      "owner()": {
        "notice": "----------------------------------------------------------------------- Ownership Storage -----------------------------------------------------------------------"
      },
      "transferOwnership(address)": {
        "notice": "----------------------------------------------------------------------- Ownership Logic -----------------------------------------------------------------------"
      }
    },
    "version": 1
  },
  "storageLayout": {
    "storage": [
      {
        "astId": 12571,
        "contract": "contracts/CardTraits.sol:CardTraits",
        "label": "owner",
        "offset": 0,
        "slot": "0",
        "type": "t_address"
      }
    ],
    "types": {
      "t_address": {
        "encoding": "inplace",
        "label": "address",
        "numberOfBytes": "20"
      }
    }
  }
}