{
  "address": "0xE4F669807D3CDdD24Cc5fF7F5AC8B3878545f844",
  "abi": [
    {
      "inputs": [
        {
          "internalType": "string",
          "name": "name",
          "type": "string"
        },
        {
          "internalType": "string",
          "name": "symbol",
          "type": "string"
        },
        {
          "internalType": "address",
          "name": "erc721Storage",
          "type": "address"
        }
      ],
      "stateMutability": "nonpayable",
      "type": "constructor"
    },
    {
      "inputs": [],
      "name": "AlreadyMinted",
      "type": "error"
    },
    {
      "inputs": [],
      "name": "InvalidRecipient",
      "type": "error"
    },
    {
      "inputs": [],
      "name": "NewOwnerIsZeroAddress",
      "type": "error"
    },
    {
      "inputs": [],
      "name": "NoHandoverRequest",
      "type": "error"
    },
    {
      "inputs": [],
      "name": "NotApproved",
      "type": "error"
    },
    {
      "inputs": [],
      "name": "NotMinted",
      "type": "error"
    },
    {
      "inputs": [],
      "name": "UnsafeRecipient",
      "type": "error"
    },
    {
      "inputs": [],
      "name": "WrongFrom",
      "type": "error"
    },
    {
      "inputs": [],
      "name": "ZeroAddress",
      "type": "error"
    },
    {
      "anonymous": false,
      "inputs": [
        {
          "indexed": true,
          "internalType": "address",
          "name": "owner",
          "type": "address"
        },
        {
          "indexed": true,
          "internalType": "address",
          "name": "spender",
          "type": "address"
        },
        {
          "indexed": true,
          "internalType": "uint256",
          "name": "id",
          "type": "uint256"
        }
      ],
      "name": "Approval",
      "type": "event"
    },
    {
      "anonymous": false,
      "inputs": [
        {
          "indexed": true,
          "internalType": "address",
          "name": "owner",
          "type": "address"
        },
        {
          "indexed": true,
          "internalType": "address",
          "name": "operator",
          "type": "address"
        },
        {
          "indexed": false,
          "internalType": "bool",
          "name": "approved",
          "type": "bool"
        }
      ],
      "name": "ApprovalForAll",
      "type": "event"
    },
    {
      "anonymous": false,
      "inputs": [
        {
          "indexed": false,
          "internalType": "address",
          "name": "erc721Storage",
          "type": "address"
        }
      ],
      "name": "ERC721StorageUpdated",
      "type": "event"
    },
    {
      "anonymous": false,
      "inputs": [
        {
          "indexed": true,
          "internalType": "address",
          "name": "pendingOwner",
          "type": "address"
        }
      ],
      "name": "OwnershipHandoverCanceled",
      "type": "event"
    },
    {
      "anonymous": false,
      "inputs": [
        {
          "indexed": true,
          "internalType": "address",
          "name": "pendingOwner",
          "type": "address"
        }
      ],
      "name": "OwnershipHandoverRequested",
      "type": "event"
    },
    {
      "anonymous": false,
      "inputs": [
        {
          "indexed": true,
          "internalType": "address",
          "name": "oldOwner",
          "type": "address"
        },
        {
          "indexed": true,
          "internalType": "address",
          "name": "newOwner",
          "type": "address"
        }
      ],
      "name": "OwnershipTransferred",
      "type": "event"
    },
    {
      "anonymous": false,
      "inputs": [
        {
          "indexed": true,
          "internalType": "address",
          "name": "user",
          "type": "address"
        },
        {
          "indexed": true,
          "internalType": "uint256",
          "name": "roles",
          "type": "uint256"
        }
      ],
      "name": "RolesUpdated",
      "type": "event"
    },
    {
      "anonymous": false,
      "inputs": [
        {
          "indexed": true,
          "internalType": "address",
          "name": "from",
          "type": "address"
        },
        {
          "indexed": true,
          "internalType": "address",
          "name": "to",
          "type": "address"
        },
        {
          "indexed": true,
          "internalType": "uint256",
          "name": "id",
          "type": "uint256"
        }
      ],
      "name": "Transfer",
      "type": "event"
    },
    {
      "inputs": [
        {
          "internalType": "address",
          "name": "spender",
          "type": "address"
        },
        {
          "internalType": "uint256",
          "name": "id",
          "type": "uint256"
        }
      ],
      "name": "approve",
      "outputs": [],
      "stateMutability": "nonpayable",
      "type": "function"
    },
    {
      "inputs": [
        {
          "internalType": "address",
          "name": "owner",
          "type": "address"
        }
      ],
      "name": "balanceOf",
      "outputs": [
        {
          "internalType": "uint256",
          "name": "",
          "type": "uint256"
        }
      ],
      "stateMutability": "view",
      "type": "function"
    },
    {
      "inputs": [
        {
          "internalType": "address",
          "name": "account",
          "type": "address"
        }
      ],
      "name": "belongsTo",
      "outputs": [
        {
          "internalType": "uint256",
          "name": "",
          "type": "uint256"
        }
      ],
      "stateMutability": "view",
      "type": "function"
    },
    {
      "inputs": [
        {
          "internalType": "uint256",
          "name": "tokenId",
          "type": "uint256"
        }
      ],
      "name": "burn",
      "outputs": [],
      "stateMutability": "nonpayable",
      "type": "function"
    },
    {
      "inputs": [],
      "name": "cancelOwnershipHandover",
      "outputs": [],
      "stateMutability": "payable",
      "type": "function"
    },
    {
      "inputs": [
        {
          "internalType": "address",
          "name": "pendingOwner",
          "type": "address"
        }
      ],
      "name": "completeOwnershipHandover",
      "outputs": [],
      "stateMutability": "payable",
      "type": "function"
    },
    {
      "inputs": [],
      "name": "contractURI",
      "outputs": [
        {
          "internalType": "string",
          "name": "",
          "type": "string"
        }
      ],
      "stateMutability": "view",
      "type": "function"
    },
    {
      "inputs": [
        {
          "internalType": "uint256",
          "name": "",
          "type": "uint256"
        }
      ],
      "name": "getApproved",
      "outputs": [
        {
          "internalType": "address",
          "name": "",
          "type": "address"
        }
      ],
      "stateMutability": "view",
      "type": "function"
    },
    {
      "inputs": [],
      "name": "getERC721Storage",
      "outputs": [
        {
          "internalType": "address",
          "name": "",
          "type": "address"
        }
      ],
      "stateMutability": "view",
      "type": "function"
    },
    {
      "inputs": [
        {
          "internalType": "address",
          "name": "user",
          "type": "address"
        },
        {
          "internalType": "uint256",
          "name": "roles",
          "type": "uint256"
        }
      ],
      "name": "grantRoles",
      "outputs": [],
      "stateMutability": "payable",
      "type": "function"
    },
    {
      "inputs": [
        {
          "internalType": "address",
          "name": "user",
          "type": "address"
        },
        {
          "internalType": "uint256",
          "name": "roles",
          "type": "uint256"
        }
      ],
      "name": "hasAllRoles",
      "outputs": [
        {
          "internalType": "bool",
          "name": "result",
          "type": "bool"
        }
      ],
      "stateMutability": "view",
      "type": "function"
    },
    {
      "inputs": [
        {
          "internalType": "address",
          "name": "user",
          "type": "address"
        },
        {
          "internalType": "uint256",
          "name": "roles",
          "type": "uint256"
        }
      ],
      "name": "hasAnyRole",
      "outputs": [
        {
          "internalType": "bool",
          "name": "result",
          "type": "bool"
        }
      ],
      "stateMutability": "view",
      "type": "function"
    },
    {
      "inputs": [
        {
          "internalType": "address",
          "name": "",
          "type": "address"
        },
        {
          "internalType": "address",
          "name": "",
          "type": "address"
        }
      ],
      "name": "isApprovedForAll",
      "outputs": [
        {
          "internalType": "bool",
          "name": "",
          "type": "bool"
        }
      ],
      "stateMutability": "view",
      "type": "function"
    },
    {
      "inputs": [
        {
          "internalType": "address",
          "name": "to",
          "type": "address"
        }
      ],
      "name": "mint",
      "outputs": [
        {
          "internalType": "uint256",
          "name": "",
          "type": "uint256"
        }
      ],
      "stateMutability": "nonpayable",
      "type": "function"
    },
    {
      "inputs": [],
      "name": "name",
      "outputs": [
        {
          "internalType": "string",
          "name": "",
          "type": "string"
        }
      ],
      "stateMutability": "view",
      "type": "function"
    },
    {
      "inputs": [
        {
          "internalType": "uint256",
          "name": "roles",
          "type": "uint256"
        }
      ],
      "name": "ordinalsFromRoles",
      "outputs": [
        {
          "internalType": "uint8[]",
          "name": "ordinals",
          "type": "uint8[]"
        }
      ],
      "stateMutability": "pure",
      "type": "function"
    },
    {
      "inputs": [],
      "name": "owner",
      "outputs": [
        {
          "internalType": "address",
          "name": "result",
          "type": "address"
        }
      ],
      "stateMutability": "view",
      "type": "function"
    },
    {
      "inputs": [
        {
          "internalType": "uint256",
          "name": "tokenId",
          "type": "uint256"
        }
      ],
      "name": "ownerOf",
      "outputs": [
        {
          "internalType": "address",
          "name": "",
          "type": "address"
        }
      ],
      "stateMutability": "view",
      "type": "function"
    },
    {
      "inputs": [
        {
          "internalType": "address",
          "name": "pendingOwner",
          "type": "address"
        }
      ],
      "name": "ownershipHandoverExpiresAt",
      "outputs": [
        {
          "internalType": "uint256",
          "name": "result",
          "type": "uint256"
        }
      ],
      "stateMutability": "view",
      "type": "function"
    },
    {
      "inputs": [],
      "name": "ownershipHandoverValidFor",
      "outputs": [
        {
          "internalType": "uint64",
          "name": "",
          "type": "uint64"
        }
      ],
      "stateMutability": "view",
      "type": "function"
    },
    {
      "inputs": [
        {
          "internalType": "address",
          "name": "account",
          "type": "address"
        }
      ],
      "name": "preview",
      "outputs": [
        {
          "internalType": "string",
          "name": "",
          "type": "string"
        }
      ],
      "stateMutability": "view",
      "type": "function"
    },
    {
      "inputs": [
        {
          "internalType": "address",
          "name": "account",
          "type": "address"
        },
        {
          "internalType": "uint8",
          "name": "color",
          "type": "uint8"
        },
        {
          "internalType": "uint8",
          "name": "emoji",
          "type": "uint8"
        }
      ],
      "name": "previewWithStyle",
      "outputs": [
        {
          "internalType": "string",
          "name": "",
          "type": "string"
        }
      ],
      "stateMutability": "view",
      "type": "function"
    },
    {
      "inputs": [],
      "name": "renounceOwnership",
      "outputs": [],
      "stateMutability": "payable",
      "type": "function"
    },
    {
      "inputs": [
        {
          "internalType": "uint256",
          "name": "roles",
          "type": "uint256"
        }
      ],
      "name": "renounceRoles",
      "outputs": [],
      "stateMutability": "payable",
      "type": "function"
    },
    {
      "inputs": [],
      "name": "requestOwnershipHandover",
      "outputs": [],
      "stateMutability": "payable",
      "type": "function"
    },
    {
      "inputs": [
        {
          "internalType": "address",
          "name": "user",
          "type": "address"
        },
        {
          "internalType": "uint256",
          "name": "roles",
          "type": "uint256"
        }
      ],
      "name": "revokeRoles",
      "outputs": [],
      "stateMutability": "payable",
      "type": "function"
    },
    {
      "inputs": [
        {
          "internalType": "uint8[]",
          "name": "ordinals",
          "type": "uint8[]"
        }
      ],
      "name": "rolesFromOrdinals",
      "outputs": [
        {
          "internalType": "uint256",
          "name": "roles",
          "type": "uint256"
        }
      ],
      "stateMutability": "pure",
      "type": "function"
    },
    {
      "inputs": [
        {
          "internalType": "address",
          "name": "user",
          "type": "address"
        }
      ],
      "name": "rolesOf",
      "outputs": [
        {
          "internalType": "uint256",
          "name": "roles",
          "type": "uint256"
        }
      ],
      "stateMutability": "view",
      "type": "function"
    },
    {
      "inputs": [
        {
          "internalType": "address",
          "name": "from",
          "type": "address"
        },
        {
          "internalType": "address",
          "name": "to",
          "type": "address"
        },
        {
          "internalType": "uint256",
          "name": "tokenId",
          "type": "uint256"
        }
      ],
      "name": "safeTransferFrom",
      "outputs": [],
      "stateMutability": "nonpayable",
      "type": "function"
    },
    {
      "inputs": [
        {
          "internalType": "address",
          "name": "from",
          "type": "address"
        },
        {
          "internalType": "address",
          "name": "to",
          "type": "address"
        },
        {
          "internalType": "uint256",
          "name": "tokenId",
          "type": "uint256"
        },
        {
          "internalType": "bytes",
          "name": "data",
          "type": "bytes"
        }
      ],
      "name": "safeTransferFrom",
      "outputs": [],
      "stateMutability": "nonpayable",
      "type": "function"
    },
    {
      "inputs": [
        {
          "internalType": "address",
          "name": "operator",
          "type": "address"
        },
        {
          "internalType": "bool",
          "name": "approved",
          "type": "bool"
        }
      ],
      "name": "setApprovalForAll",
      "outputs": [],
      "stateMutability": "nonpayable",
      "type": "function"
    },
    {
      "inputs": [
        {
          "internalType": "address",
          "name": "erc721Storage",
          "type": "address"
        }
      ],
      "name": "setStorage",
      "outputs": [],
      "stateMutability": "nonpayable",
      "type": "function"
    },
    {
      "inputs": [
        {
          "internalType": "bytes4",
          "name": "interfaceId",
          "type": "bytes4"
        }
      ],
      "name": "supportsInterface",
      "outputs": [
        {
          "internalType": "bool",
          "name": "",
          "type": "bool"
        }
      ],
      "stateMutability": "view",
      "type": "function"
    },
    {
      "inputs": [],
      "name": "symbol",
      "outputs": [
        {
          "internalType": "string",
          "name": "",
          "type": "string"
        }
      ],
      "stateMutability": "view",
      "type": "function"
    },
    {
      "inputs": [
        {
          "internalType": "uint256",
          "name": "tokenId",
          "type": "uint256"
        }
      ],
      "name": "tokenURI",
      "outputs": [
        {
          "internalType": "string",
          "name": "",
          "type": "string"
        }
      ],
      "stateMutability": "view",
      "type": "function"
    },
    {
      "inputs": [],
      "name": "totalSupply",
      "outputs": [
        {
          "internalType": "uint256",
          "name": "",
          "type": "uint256"
        }
      ],
      "stateMutability": "view",
      "type": "function"
    },
    {
      "inputs": [
        {
          "internalType": "address",
          "name": "from",
          "type": "address"
        },
        {
          "internalType": "address",
          "name": "to",
          "type": "address"
        },
        {
          "internalType": "uint256",
          "name": "tokenId",
          "type": "uint256"
        }
      ],
      "name": "transferFrom",
      "outputs": [],
      "stateMutability": "nonpayable",
      "type": "function"
    },
    {
      "inputs": [
        {
          "internalType": "address",
          "name": "newOwner",
          "type": "address"
        }
      ],
      "name": "transferOwnership",
      "outputs": [],
      "stateMutability": "payable",
      "type": "function"
    }
  ],
  "transactionHash": "0x5da39b4df58a774fa43fda0fc860e2efab792e2bc0c2fcf8c71f8ee554dc5953",
  "args": [
    "Web3 Savings Card",
    "SAVE",
    "0xED099B095F77A9bC3c8a418028817E69448De544"
  ],
  "numDeployments": 1,
  "solcInputHash": "404f5463dd6ebc8ff1a6e382af5684f3",
  "bytecode": "0x60a0604052670de0b6b3a76400006080523480156200001d57600080fd5b50604051620022bc380380620022bc8339810160408190526200004091620001b7565b82828282826000620000538382620002d3565b506001620000628282620002d3565b5050600780546001600160a01b0319166001600160a01b038416179055506200008b33620000ae565b50506006805491506000620000a0836200039f565b9190505550505050620003c7565b6001600160a01b0316638b78c6d8198190558060007f8be0079c531659141344cd1fd0a4f28419497f9722a3daafe3b4186f6b6457e08180a350565b634e487b7160e01b600052604160045260246000fd5b600082601f8301126200011257600080fd5b81516001600160401b03808211156200012f576200012f620000ea565b604051601f8301601f19908116603f011681019082821181831017156200015a576200015a620000ea565b816040528381526020925086838588010111156200017757600080fd5b600091505b838210156200019b57858201830151818301840152908201906200017c565b83821115620001ad5760008385830101525b9695505050505050565b600080600060608486031215620001cd57600080fd5b83516001600160401b0380821115620001e557600080fd5b620001f38783880162000100565b945060208601519150808211156200020a57600080fd5b50620002198682870162000100565b604086015190935090506001600160a01b03811681146200023957600080fd5b809150509250925092565b600181811c908216806200025957607f821691505b6020821081036200027a57634e487b7160e01b600052602260045260246000fd5b50919050565b601f821115620002ce57600081815260208120601f850160051c81016020861015620002a95750805b601f850160051c820191505b81811015620002ca57828155600101620002b5565b5050505b505050565b81516001600160401b03811115620002ef57620002ef620000ea565b620003078162000300845462000244565b8462000280565b602080601f8311600181146200033f5760008415620003265750858301515b600019600386901b1c1916600185901b178555620002ca565b600085815260208120601f198616915b8281101562000370578886015182559484019460019091019084016200034f565b50858210156200038f5787850151600019600388901b60f8161c191681555b5050505050600190811b01905550565b600060018201620003c057634e487b7160e01b600052601160045260246000fd5b5060010190565b608051611ed2620003ea60003960008181610c900152610dc90152611ed26000f3fe6080604052600436106102255760003560e01c80636352211e1161012357806395d89b41116100ab578063e8a3d4851161006f578063e8a3d48514610671578063e985e9c514610686578063f04e283e146106c1578063f2fde38b146106d4578063fee81cf4146106e757600080fd5b806395d89b41146105de578063a22cb465146105f3578063b88d4fde14610613578063c87b56dd14610633578063d7533f021461065357600080fd5b80637359e41f116100f25780637359e41f146105245780638662d3ae1461055157806387a89ee6146105875780638da5cb5b146105a55780639137c1a7146105be57600080fd5b80636352211e146104bc5780636a627842146104dc57806370a08231146104fc578063715018a61461051c57600080fd5b80631c10893f116101b157806342842e0e1161017557806342842e0e1461042a57806342966c681461044a5780634a4ee7b11461046a578063514e62fc1461047d57806354d1f13d146104b457600080fd5b80631c10893f146103875780631cd64df41461039a57806323b872dd146103d157806325692962146103f15780632de94807146103f957600080fd5b806310b41c3e116101f857806310b41c3e146102f157806313a661ed1461031157806313a69df91461033f57806318160ddd1461035f578063183a4f6e1461037457600080fd5b806301ffc9a71461022a57806306fdde031461025f578063081812fc14610281578063095ea7b3146102cf575b600080fd5b34801561023657600080fd5b5061024a610245366004611922565b610718565b60405190151581526020015b60405180910390f35b34801561026b57600080fd5b50610274610729565b604051610256919061199b565b34801561028d57600080fd5b506102b761029c3660046119ae565b6004602052600090815260409020546001600160a01b031681565b6040516001600160a01b039091168152602001610256565b3480156102db57600080fd5b506102ef6102ea3660046119dc565b6107b7565b005b3480156102fd57600080fd5b5061027461030c366004611a1e565b61087d565b34801561031d57600080fd5b5061033161032c366004611aaa565b6109f9565b604051908152602001610256565b34801561034b57600080fd5b5061027461035a366004611b57565b610a2c565b34801561036b57600080fd5b50600654610331565b6102ef6103823660046119ae565b610b8c565b6102ef6103953660046119dc565b610b99565b3480156103a657600080fd5b5061024a6103b53660046119dc565b60609190911b638b78c6d8176000908152602090205481161490565b3480156103dd57600080fd5b506102ef6103ec366004611b74565b610bc2565b6102ef610bf8565b34801561040557600080fd5b50610331610414366004611b57565b60601b638b78c6d8176000908152602090205490565b34801561043657600080fd5b506102ef610445366004611b74565b610c49565b34801561045657600080fd5b506102ef6104653660046119ae565b610c7a565b6102ef6104783660046119dc565b610d2b565b34801561048957600080fd5b5061024a6104983660046119dc565b60609190911b638b78c6d8176000908152602090205416151590565b6102ef610d50565b3480156104c857600080fd5b506102b76104d73660046119ae565b610d8d565b3480156104e857600080fd5b506103316104f7366004611b57565b610db3565b34801561050857600080fd5b50610331610517366004611b57565b610ebb565b6102ef610f00565b34801561053057600080fd5b5061054461053f3660046119ae565b610f4e565b6040516102569190611bb5565b34801561055d57600080fd5b5061033161056c366004611b57565b6001600160a01b031660009081526008602052604090205490565b34801561059357600080fd5b506007546001600160a01b03166102b7565b3480156105b157600080fd5b50638b78c6d819546102b7565b3480156105ca57600080fd5b506102ef6105d9366004611b57565b610f96565b3480156105ea57600080fd5b50610274611005565b3480156105ff57600080fd5b506102ef61060e366004611bfc565b611012565b34801561061f57600080fd5b506102ef61062e366004611c3a565b61107e565b34801561063f57600080fd5b5061027461064e3660046119ae565b6110b8565b34801561065f57600080fd5b506040516202a3008152602001610256565b34801561067d57600080fd5b5061027461114b565b34801561069257600080fd5b5061024a6106a1366004611cd9565b600560209081526000928352604080842090915290825290205460ff1681565b6102ef6106cf366004611b57565b6111c2565b6102ef6106e2366004611b57565b611244565b3480156106f357600080fd5b50610331610702366004611b57565b60601b63389a75e1176000908152602090205490565b6000610723826112ab565b92915050565b6000805461073690611d07565b80601f016020809104026020016040519081016040528092919081815260200182805461076290611d07565b80156107af5780601f10610784576101008083540402835291602001916107af565b820191906000526020600020905b81548152906001019060200180831161079257829003601f168201915b505050505081565b6000818152600260205260409020546001600160a01b031633811480159061080357506001600160a01b038116600090815260056020908152604080832033845290915290205460ff16155b156108215760405163c19f17a960e01b815260040160405180910390fd5b60008281526004602052604080822080546001600160a01b0319166001600160a01b0387811691821790925591518593918516917f8c5be1e5ebec7d5bd14f71427d1e84f3dd0314c0f7b2291e5b200ac8c7c3b92591a4505050565b600754604051630955760f60e31b81526001600160a01b03858116600483015260ff808616602484015284166044830152606092600092911690634aabb07890606401600060405180830381865afa1580156108dd573d6000803e3d6000fd5b505050506040513d6000823e601f3d908101601f191682016040526109059190810190611d90565b9050600760009054906101000a90046001600160a01b03166001600160a01b03166325c28b4a6040518163ffffffff1660e01b8152600401602060405180830381865afa15801561095a573d6000803e3d6000fd5b505050506040513d601f19601f8201168201806040525081019061097e9190611dd9565b6001600160a01b031663316df61e826040518263ffffffff1660e01b81526004016109a9919061199b565b600060405180830381865afa1580156109c6573d6000803e3d6000fd5b505050506040513d6000823e601f3d908101601f191682016040526109ee9190810190611d90565b9150505b9392505050565b600060208201825160051b81015b808214610a2557600160ff8351161b83179250602082019150610a07565b5050919050565b6007546040516320ef0c0f60e21b81526001600160a01b0383811660048301526060926000929116906383bc303c90602401600060405180830381865afa158015610a7b573d6000803e3d6000fd5b505050506040513d6000823e601f3d908101601f19168201604052610aa39190810190611d90565b9050600760009054906101000a90046001600160a01b03166001600160a01b031663a4cd86966040518163ffffffff1660e01b8152600401602060405180830381865afa158015610af8573d6000803e3d6000fd5b505050506040513d601f19601f82011682018060405250810190610b1c9190611dd9565b6001600160a01b031663316df61e826040518263ffffffff1660e01b8152600401610b47919061199b565b600060405180830381865afa158015610b64573d6000803e3d6000fd5b505050506040513d6000823e601f3d908101601f191682016040526109f29190810190611d90565b610b9633826112b6565b50565b638b78c6d819543314610bb4576382b429006000526004601cfd5b610bbe8282611307565b5050565b6001600160a01b03808416600090815260086020526040808220829055918416815220819055610bf3838383611353565b505050565b60006202a30067ffffffffffffffff164201905063389a75e13360601b1760005280602060002055337fdbf36a107da19e49527a7176a1babf963b4b0ff8cde35ee35d6cd8f1f9ac7e1d600080a250565b6001600160a01b03808416600090815260086020526040808220829055918416815220819055610bf38383836114c1565b638b78c6d83360601b17600090815260209020547f000000000000000000000000000000000000000000000000000000000000000090811614610cfc5760405162461bcd60e51b815260206004820152601560248201527415d9588cd0d85c990e9d5b985d5d1a1bdc9a5e9959605a1b60448201526064015b60405180910390fd5b6000610d0782610d8d565b6001600160a01b0381166000908152600860205260408120559050610bbe8261158f565b638b78c6d819543314610d46576382b429006000526004601cfd5b610bbe82826112b6565b63389a75e13360601b176000526000602060002055337ffa7b8eab7da67f412cc9575ed43464468f9bfbae89d1675917346ca6d8fe3c92600080a2565b6000818152600260205260408120546001600160a01b0316806107235750600092915050565b638b78c6d83360601b17600090815260208120547f000000000000000000000000000000000000000000000000000000000000000090811614610e305760405162461bcd60e51b815260206004820152601560248201527415d9588cd0d85c990e9d5b985d5d1a1bdc9a5e9959605a1b6044820152606401610cf3565b6001600160a01b03821660009081526008602052604090205415610e8b5760405162461bcd60e51b815260206004820152601260248201527115d9588cd0d85c990e9858dd1a5d985d195960721b6044820152606401610cf3565b60068054600181019091556001600160a01b03831660009081526008602052604090208190556107238382611640565b60006001600160a01b038216610ee45760405163d92e233d60e01b815260040160405180910390fd5b506001600160a01b031660009081526003602052604090205490565b638b78c6d819543314610f1b576382b429006000526004601cfd5b6000337f8be0079c531659141344cd1fd0a4f28419497f9722a3daafe3b4186f6b6457e0600080a36000638b78c6d81955565b606060206040510160005b8082526001841660051b820191508360011c93508315610f7b57600101610f59565b5060405191508060405260208201810360051c825250919050565b638b78c6d819543314610fb1576382b429006000526004601cfd5b600780546001600160a01b0319166001600160a01b0383169081179091556040519081527fd833c7cea3bce2562e201bf7e85016d0bc1173580c719f63378cc5d0457552b69060200160405180910390a150565b6001805461073690611d07565b3360008181526005602090815260408083206001600160a01b03871680855290835292819020805460ff191686151590811790915590519081529192917f17307eab39ab6107e8899845ad3d59bd9653f200f220920489ca2b5937696c31910160405180910390a35050565b6001600160a01b038086166000908152600860205260408082208290559186168152208390556110b18585858585611708565b5050505050565b60606000806110c6846117c4565b600754604051637833cb0b60e11b81529294509092506001600160a01b03169063f0679616906110fe90879086908690600401611df6565b600060405180830381865afa15801561111b573d6000803e3d6000fd5b505050506040513d6000823e601f3d908101601f191682016040526111439190810190611d90565b949350505050565b60075460408051631c97e82760e21b815290516060926001600160a01b03169163725fa09c9160048083019260009291908290030181865afa158015611195573d6000803e3d6000fd5b505050506040513d6000823e601f3d908101601f191682016040526111bd9190810190611d90565b905090565b638b78c6d8195433146111dd576382b429006000526004601cfd5b8060601b60601c905063389a75e18160601b176000526020600020805442111561120f57636f5e88186000526004601cfd5b600081555080337f8be0079c531659141344cd1fd0a4f28419497f9722a3daafe3b4186f6b6457e0600080a3638b78c6d81955565b638b78c6d81954331461125f576382b429006000526004601cfd5b6001600160a01b03168061127b57637448fbae6000526004601cfd5b80337f8be0079c531659141344cd1fd0a4f28419497f9722a3daafe3b4186f6b6457e0600080a3638b78c6d81955565b6000610723826118be565b638b78c6d88260601b176000526020600020805482811681189050808255808460601b60601c7f715ad5ce61fc9595c7b415289d59cf203f23a94fa06f04af7e489a0a76e1fe26600080a350505050565b638b78c6d88260601b17600052602060002081815417808255808460601b60601c7f715ad5ce61fc9595c7b415289d59cf203f23a94fa06f04af7e489a0a76e1fe26600080a350505050565b6000818152600260205260409020546001600160a01b0384811691161461138d5760405163c6de3f2560e01b815260040160405180910390fd5b6001600160a01b0382166113b457604051634e46966960e11b815260040160405180910390fd5b336001600160a01b038416148015906113f157506001600160a01b038316600090815260056020908152604080832033845290915290205460ff16155b801561141457506000818152600460205260409020546001600160a01b03163314155b156114325760405163c19f17a960e01b815260040160405180910390fd5b6001600160a01b0380841660008181526003602090815260408083208054600019019055938616808352848320805460010190558583526002825284832080546001600160a01b03199081168317909155600490925284832080549092169091559251849392917fddf252ad1be2c89b69c2b068fc378daa952ba7f163c4a11628f55a4df523b3ef91a4505050565b6114cc838383610bc2565b6001600160a01b0382163b15610bf357604051630a85bd0160e11b8082523360048301526001600160a01b03858116602484015260448301849052608060648401526000608484015290919084169063150b7a029060a4016020604051808303816000875af1158015611543573d6000803e3d6000fd5b505050506040513d601f19601f820116820180604052508101906115679190611e2b565b6001600160e01b03191614610bf357604051633da6393160e01b815260040160405180910390fd5b6000818152600260205260409020546001600160a01b0316806115c557604051634d5e5fb360e01b815260040160405180910390fd5b6001600160a01b038116600081815260036020908152604080832080546000190190558583526002825280832080546001600160a01b031990811690915560049092528083208054909216909155518492907fddf252ad1be2c89b69c2b068fc378daa952ba7f163c4a11628f55a4df523b3ef908390a45050565b6001600160a01b03821661166757604051634e46966960e11b815260040160405180910390fd5b6000818152600260205260409020546001600160a01b03161561169d57604051631bbdf5c560e31b815260040160405180910390fd5b6001600160a01b038216600081815260036020908152604080832080546001019055848352600290915280822080546001600160a01b0319168417905551839291907fddf252ad1be2c89b69c2b068fc378daa952ba7f163c4a11628f55a4df523b3ef908290a45050565b611713858585610bc2565b6001600160a01b0384163b156110b157604051630a85bd0160e11b808252906001600160a01b0386169063150b7a02906117599033908a90899089908990600401611e48565b6020604051808303816000875af1158015611778573d6000803e3d6000fd5b505050506040513d601f19601f8201168201806040525081019061179c9190611e2b565b6001600160e01b031916146110b157604051633da6393160e01b815260040160405180910390fd5b600754604051630976c51760e01b81526004810183905260609182916000916001600160a01b031690630976c51790602401600060405180830381865afa158015611813573d6000803e3d6000fd5b505050506040513d6000823e601f3d908101601f1916820160405261183b9190810190611d90565b600754604051632d08d6b760e01b8152600481018790529192506000916001600160a01b0390911690632d08d6b790602401600060405180830381865afa15801561188a573d6000803e3d6000fd5b505050506040513d6000823e601f3d908101601f191682016040526118b29190810190611d90565b91959194509092505050565b60006301ffc9a760e01b6001600160e01b0319831614806118ef57506380ac58cd60e01b6001600160e01b03198316145b806107235750506001600160e01b031916635b5e139f60e01b1490565b6001600160e01b031981168114610b9657600080fd5b60006020828403121561193457600080fd5b81356109f28161190c565b60005b8381101561195a578181015183820152602001611942565b83811115611969576000848401525b50505050565b6000815180845261198781602086016020860161193f565b601f01601f19169290920160200192915050565b6020815260006109f2602083018461196f565b6000602082840312156119c057600080fd5b5035919050565b6001600160a01b0381168114610b9657600080fd5b600080604083850312156119ef57600080fd5b82356119fa816119c7565b946020939093013593505050565b803560ff81168114611a1957600080fd5b919050565b600080600060608486031215611a3357600080fd5b8335611a3e816119c7565b9250611a4c60208501611a08565b9150611a5a60408501611a08565b90509250925092565b634e487b7160e01b600052604160045260246000fd5b604051601f8201601f1916810167ffffffffffffffff81118282101715611aa257611aa2611a63565b604052919050565b60006020808385031215611abd57600080fd5b823567ffffffffffffffff80821115611ad557600080fd5b818501915085601f830112611ae957600080fd5b813581811115611afb57611afb611a63565b8060051b9150611b0c848301611a79565b8181529183018401918481019088841115611b2657600080fd5b938501935b83851015611b4b57611b3c85611a08565b82529385019390850190611b2b565b98975050505050505050565b600060208284031215611b6957600080fd5b81356109f2816119c7565b600080600060608486031215611b8957600080fd5b8335611b94816119c7565b92506020840135611ba4816119c7565b929592945050506040919091013590565b6020808252825182820181905260009190848201906040850190845b81811015611bf057835160ff1683529284019291840191600101611bd1565b50909695505050505050565b60008060408385031215611c0f57600080fd5b8235611c1a816119c7565b915060208301358015158114611c2f57600080fd5b809150509250929050565b600080600080600060808688031215611c5257600080fd5b8535611c5d816119c7565b94506020860135611c6d816119c7565b935060408601359250606086013567ffffffffffffffff80821115611c9157600080fd5b818801915088601f830112611ca557600080fd5b813581811115611cb457600080fd5b896020828501011115611cc657600080fd5b9699959850939650602001949392505050565b60008060408385031215611cec57600080fd5b8235611cf7816119c7565b91506020830135611c2f816119c7565b600181811c90821680611d1b57607f821691505b602082108103611d3b57634e487b7160e01b600052602260045260246000fd5b50919050565b600067ffffffffffffffff831115611d5b57611d5b611a63565b611d6e601f8401601f1916602001611a79565b9050828152838383011115611d8257600080fd5b6109f283602083018461193f565b600060208284031215611da257600080fd5b815167ffffffffffffffff811115611db957600080fd5b8201601f81018413611dca57600080fd5b61114384825160208401611d41565b600060208284031215611deb57600080fd5b81516109f2816119c7565b838152606060208201526000611e0f606083018561196f565b8281036040840152611e21818561196f565b9695505050505050565b600060208284031215611e3d57600080fd5b81516109f28161190c565b6001600160a01b038681168252851660208201526040810184905260806060820181905281018290526000828460a0840137600060a0848401015260a0601f19601f8501168301019050969550505050505056fea2646970667358221220ab5f92656b6614acd0c4565fa71beac4894af116717d370f227881d563fcfe1464736f6c634300080f0033",
  "devdoc": {
    "errors": {
      "NewOwnerIsZeroAddress()": [
        {
          "details": "The `newOwner` cannot be the zero address."
        }
      ],
      "NoHandoverRequest()": [
        {
          "details": "The `pendingOwner` does not have a valid handover request."
        }
      ]
    },
    "kind": "dev",
    "methods": {
      "burn(uint256)": {
        "params": {
          "tokenId": "uint256 - Token ID to burn"
        }
      },
      "cancelOwnershipHandover()": {
        "details": "Cancels the two-step ownership handover to the caller, if any."
      },
      "completeOwnershipHandover(address)": {
        "details": "Allows the owner to complete the two-step ownership handover to `pendingOwner`. Reverts if there is no existing ownership handover requested by `pendingOwner`."
      },
      "grantRoles(address,uint256)": {
        "details": "Allows the owner to grant `user` `roles`. If the `user` already has a role, then it will be an no-op for the role."
      },
      "hasAllRoles(address,uint256)": {
        "details": "Returns whether `user` has all of `roles`."
      },
      "hasAnyRole(address,uint256)": {
        "details": "Returns whether `user` has any of `roles`."
      },
      "mint(address)": {
        "params": {
          "to": "address - Address to mint to`"
        }
      },
      "ordinalsFromRoles(uint256)": {
        "details": "Convenience function to return an array of `ordinals` from the `roles` bitmap. This is meant for frontends like Etherscan, and is therefore not fully optimized. Not recommended to be called on-chain."
      },
      "owner()": {
        "details": "Returns the owner of the contract."
      },
      "ownershipHandoverExpiresAt(address)": {
        "details": "Returns the expiry timestamp for the two-step ownership handover to `pendingOwner`."
      },
      "ownershipHandoverValidFor()": {
        "details": "Returns how long a two-step ownership handover is valid for in seconds."
      },
      "renounceOwnership()": {
        "details": "Allows the owner to renounce their ownership."
      },
      "renounceRoles(uint256)": {
        "details": "Allow the caller to remove their own roles. If the caller does not have a role, then it will be an no-op for the role."
      },
      "requestOwnershipHandover()": {
        "details": "Request a two-step ownership handover to the caller. The request will be automatically expire in 48 hours (172800 seconds) by default."
      },
      "revokeRoles(address,uint256)": {
        "details": "Allows the owner to remove `user` `roles`. If the `user` does not have a role, then it will be an no-op for the role."
      },
      "rolesFromOrdinals(uint8[])": {
        "details": "Convenience function to return a `roles` bitmap from an array of `ordinals`. This is meant for frontends like Etherscan, and is therefore not fully optimized. Not recommended to be called on-chain."
      },
      "rolesOf(address)": {
        "details": "Returns the roles of `user`."
      },
      "transferOwnership(address)": {
        "details": "Allows the owner to transfer the ownership to `newOwner`."
      }
    },
    "version": 1
  },
  "userdoc": {
    "errors": {
      "NotMinted()": [
        {
          "notice": "----------------------------------------------------------------------- Custom Errors -----------------------------------------------------------------------"
        }
      ]
    },
    "events": {
      "Transfer(address,address,uint256)": {
        "notice": "----------------------------------------------------------------------- Events -----------------------------------------------------------------------"
      }
    },
    "kind": "user",
    "methods": {
      "approve(address,uint256)": {
        "notice": "----------------------------------------------------------------------- ERC721 Logic -----------------------------------------------------------------------"
      },
      "burn(uint256)": {
        "notice": "Burns a token"
      },
      "getApproved(uint256)": {
        "notice": "----------------------------------------------------------------------- ERC721 Approval Storage -----------------------------------------------------------------------"
      },
      "mint(address)": {
        "notice": "Mints a new token to the given address"
      },
      "name()": {
        "notice": "----------------------------------------------------------------------- Metadata Storage/Logic -----------------------------------------------------------------------"
      },
      "supportsInterface(bytes4)": {
        "notice": "----------------------------------------------------------------------- ERC165 Logic -----------------------------------------------------------------------"
      }
    },
    "version": 1
  },
  "storageLayout": {
    "storage": [
      {
        "astId": 11524,
        "contract": "contracts/Card.sol:Card",
        "label": "name",
        "offset": 0,
        "slot": "0",
        "type": "t_string_storage"
      },
      {
        "astId": 11526,
        "contract": "contracts/Card.sol:Card",
        "label": "symbol",
        "offset": 0,
        "slot": "1",
        "type": "t_string_storage"
      },
      {
        "astId": 11538,
        "contract": "contracts/Card.sol:Card",
        "label": "_ownerOf",
        "offset": 0,
        "slot": "2",
        "type": "t_mapping(t_uint256,t_address)"
      },
      {
        "astId": 11542,
        "contract": "contracts/Card.sol:Card",
        "label": "_balanceOf",
        "offset": 0,
        "slot": "3",
        "type": "t_mapping(t_address,t_uint256)"
      },
      {
        "astId": 11592,
        "contract": "contracts/Card.sol:Card",
        "label": "getApproved",
        "offset": 0,
        "slot": "4",
        "type": "t_mapping(t_uint256,t_address)"
      },
      {
        "astId": 11598,
        "contract": "contracts/Card.sol:Card",
        "label": "isApprovedForAll",
        "offset": 0,
        "slot": "5",
        "type": "t_mapping(t_address,t_mapping(t_address,t_bool))"
      },
      {
        "astId": 3074,
        "contract": "contracts/Card.sol:Card",
        "label": "_idCounter",
        "offset": 0,
        "slot": "6",
        "type": "t_uint256"
      },
      {
        "astId": 3077,
        "contract": "contracts/Card.sol:Card",
        "label": "_erc721Storage",
        "offset": 0,
        "slot": "7",
        "type": "t_address"
      },
      {
        "astId": 1130,
        "contract": "contracts/Card.sol:Card",
        "label": "_belongsTo",
        "offset": 0,
        "slot": "8",
        "type": "t_mapping(t_address,t_uint256)"
      }
    ],
    "types": {
      "t_address": {
        "encoding": "inplace",
        "label": "address",
        "numberOfBytes": "20"
      },
      "t_bool": {
        "encoding": "inplace",
        "label": "bool",
        "numberOfBytes": "1"
      },
      "t_mapping(t_address,t_bool)": {
        "encoding": "mapping",
        "key": "t_address",
        "label": "mapping(address => bool)",
        "numberOfBytes": "32",
        "value": "t_bool"
      },
      "t_mapping(t_address,t_mapping(t_address,t_bool))": {
        "encoding": "mapping",
        "key": "t_address",
        "label": "mapping(address => mapping(address => bool))",
        "numberOfBytes": "32",
        "value": "t_mapping(t_address,t_bool)"
      },
      "t_mapping(t_address,t_uint256)": {
        "encoding": "mapping",
        "key": "t_address",
        "label": "mapping(address => uint256)",
        "numberOfBytes": "32",
        "value": "t_uint256"
      },
      "t_mapping(t_uint256,t_address)": {
        "encoding": "mapping",
        "key": "t_uint256",
        "label": "mapping(uint256 => address)",
        "numberOfBytes": "32",
        "value": "t_address"
      },
      "t_string_storage": {
        "encoding": "bytes",
        "label": "string",
        "numberOfBytes": "32"
      },
      "t_uint256": {
        "encoding": "inplace",
        "label": "uint256",
        "numberOfBytes": "32"
      }
    }
  }
}