{
  "address": "0x7ca4963B90b32A7FABc9C3feF0bAD5C352892f48",
  "abi": [
    {
      "inputs": [
        {
          "internalType": "address",
          "name": "admin",
          "type": "address"
        },
        {
          "internalType": "address",
          "name": "_erc721KInstance",
          "type": "address"
        },
        {
          "internalType": "address",
          "name": "_erc721KDesignInstance",
          "type": "address"
        }
      ],
      "stateMutability": "nonpayable",
      "type": "constructor"
    },
    {
      "inputs": [],
      "name": "Unauthorized",
      "type": "error"
    },
    {
      "anonymous": false,
      "inputs": [
        {
          "indexed": true,
          "internalType": "address",
          "name": "user",
          "type": "address"
        },
        {
          "indexed": true,
          "internalType": "address",
          "name": "newOwner",
          "type": "address"
        }
      ],
      "name": "OwnershipTransferred",
      "type": "event"
    },
    {
      "inputs": [
        {
          "internalType": "address",
          "name": "to",
          "type": "address"
        }
      ],
      "name": "activate",
      "outputs": [],
      "stateMutability": "nonpayable",
      "type": "function"
    },
    {
      "inputs": [
        {
          "internalType": "address",
          "name": "to",
          "type": "address"
        },
        {
          "internalType": "uint8",
          "name": "color",
          "type": "uint8"
        },
        {
          "internalType": "uint8",
          "name": "emoji",
          "type": "uint8"
        }
      ],
      "name": "activateWithStyle",
      "outputs": [],
      "stateMutability": "payable",
      "type": "function"
    },
    {
      "inputs": [],
      "name": "erc721KDesignInstance",
      "outputs": [
        {
          "internalType": "address",
          "name": "",
          "type": "address"
        }
      ],
      "stateMutability": "view",
      "type": "function"
    },
    {
      "inputs": [],
      "name": "erc721KInstance",
      "outputs": [
        {
          "internalType": "address",
          "name": "",
          "type": "address"
        }
      ],
      "stateMutability": "view",
      "type": "function"
    },
    {
      "inputs": [],
      "name": "owner",
      "outputs": [
        {
          "internalType": "address",
          "name": "",
          "type": "address"
        }
      ],
      "stateMutability": "view",
      "type": "function"
    },
    {
      "inputs": [
        {
          "internalType": "uint256",
          "name": "value",
          "type": "uint256"
        }
      ],
      "name": "release",
      "outputs": [],
      "stateMutability": "nonpayable",
      "type": "function"
    },
    {
      "inputs": [
        {
          "internalType": "uint256",
          "name": "value",
          "type": "uint256"
        }
      ],
      "name": "setStyleUpgradeCost",
      "outputs": [],
      "stateMutability": "nonpayable",
      "type": "function"
    },
    {
      "inputs": [
        {
          "internalType": "address",
          "name": "newOwner",
          "type": "address"
        }
      ],
      "name": "transferOwnership",
      "outputs": [],
      "stateMutability": "payable",
      "type": "function"
    }
  ],
  "transactionHash": "0xcbbe79e38ba5164af7e8c7b6b55285113845b8d0182c3a3726da5bcc0d00b11a",
  "args": [
    "0x761d584f1C2d43cBc3F42ECd739701a36dFFAa31",
    "0xE4F669807D3CDdD24Cc5fF7F5AC8B3878545f844",
    "0xbA8B29723E1123CC5F48F0F933BE1D4C98e0D78E"
  ],
  "numDeployments": 1,
  "solcInputHash": "404f5463dd6ebc8ff1a6e382af5684f3",
  "bytecode": "0x6080604052662386f26fc1000060035534801561001b57600080fd5b5060405161071738038061071783398101604081905261003a916100d1565b600080546001600160a01b0319166001600160a01b03851690811782556040518592907f8be0079c531659141344cd1fd0a4f28419497f9722a3daafe3b4186f6b6457e0908290a350600180546001600160a01b039384166001600160a01b0319918216179091556002805492909316911617905550610114565b80516001600160a01b03811681146100cc57600080fd5b919050565b6000806000606084860312156100e657600080fd5b6100ef846100b5565b92506100fd602085016100b5565b915061010b604085016100b5565b90509250925092565b6105f4806101236000396000f3fe60806040526004361061007b5760003560e01c80638da5cb5b1161004e5780638da5cb5b1461011e578063a3df94471461013e578063f009cec814610151578063f2fde38b1461017157600080fd5b80631c5a9d9c1461008057806325eb5073146100a257806337bdc99b146100c25780636795a874146100e2575b600080fd5b34801561008c57600080fd5b506100a061009b3660046104e3565b610184565b005b3480156100ae57600080fd5b506100a06100bd366004610505565b6101f8565b3480156100ce57600080fd5b506100a06100dd366004610505565b610227565b3480156100ee57600080fd5b50600154610102906001600160a01b031681565b6040516001600160a01b03909116815260200160405180910390f35b34801561012a57600080fd5b50600054610102906001600160a01b031681565b6100a061014c36600461052f565b6102fa565b34801561015d57600080fd5b50600254610102906001600160a01b031681565b6100a061017f3660046104e3565b610452565b6001546040516335313c2160e11b81526001600160a01b03838116600483015290911690636a627842906024016020604051808303816000875af11580156101d0573d6000803e3d6000fd5b505050506040513d601f19601f820116820180604052508101906101f49190610572565b5050565b6000546001600160a01b03163314610222576040516282b42960e81b815260040160405180910390fd5b600355565b6000546001600160a01b03163314610251576040516282b42960e81b815260040160405180910390fd5b604051600090339083908381818185875af1925050503d8060008114610293576040519150601f19603f3d011682016040523d82523d6000602084013e610298565b606091505b50509050806101f45760405162461bcd60e51b8152602060048201526024808201527f5765623343617264416374697661746f723a6574682d72656c656173652d66616044820152631a5b195960e21b60648201526084015b60405180910390fd5b6001610306828461058b565b60ff161061036b5760035434101561036b5760405162461bcd60e51b815260206004820152602260248201527f5765623343617264416374697661746f723a696e73756666696369656e742d656044820152610e8d60f31b60648201526084016102f1565b6001546040516335313c2160e11b81526001600160a01b0385811660048301526000921690636a627842906024016020604051808303816000875af11580156103b8573d6000803e3d6000fd5b505050506040513d601f19601f820116820180604052508101906103dc9190610572565b60025460405163066a9c8f60e11b81526004810183905260ff8087166024830152851660448201529192506001600160a01b031690630cd5391e90606401600060405180830381600087803b15801561043457600080fd5b505af1158015610448573d6000803e3d6000fd5b5050505050505050565b6000546001600160a01b0316331461047c576040516282b42960e81b815260040160405180910390fd5b600080546001600160a01b0319166001600160a01b0383169081178255604051909133917f8be0079c531659141344cd1fd0a4f28419497f9722a3daafe3b4186f6b6457e09190a350565b80356001600160a01b03811681146104de57600080fd5b919050565b6000602082840312156104f557600080fd5b6104fe826104c7565b9392505050565b60006020828403121561051757600080fd5b5035919050565b803560ff811681146104de57600080fd5b60008060006060848603121561054457600080fd5b61054d846104c7565b925061055b6020850161051e565b91506105696040850161051e565b90509250925092565b60006020828403121561058457600080fd5b5051919050565b600060ff821660ff84168060ff038211156105b657634e487b7160e01b600052601160045260246000fd5b01939250505056fea2646970667358221220b04a9e61ce11adf16fee627336be5bf23f3e9e7a9c001c1fff9e7ca311ed10c864736f6c634300080f0033",
  "devdoc": {
    "kind": "dev",
    "methods": {},
    "version": 1
  },
  "userdoc": {
    "errors": {
      "Unauthorized()": [
        {
          "notice": "----------------------------------------------------------------------- Custom Errors -----------------------------------------------------------------------"
        }
      ]
    },
    "events": {
      "OwnershipTransferred(address,address)": {
        "notice": "----------------------------------------------------------------------- Events -----------------------------------------------------------------------"
      }
    },
    "kind": "user",
    "methods": {
      "owner()": {
        "notice": "----------------------------------------------------------------------- Ownership Storage -----------------------------------------------------------------------"
      },
      "transferOwnership(address)": {
        "notice": "----------------------------------------------------------------------- Ownership Logic -----------------------------------------------------------------------"
      }
    },
    "version": 1
  },
  "storageLayout": {
    "storage": [
      {
        "astId": 12571,
        "contract": "contracts/CardActivator.sol:CardActivator",
        "label": "owner",
        "offset": 0,
        "slot": "0",
        "type": "t_address"
      },
      {
        "astId": 1490,
        "contract": "contracts/CardActivator.sol:CardActivator",
        "label": "erc721KInstance",
        "offset": 0,
        "slot": "1",
        "type": "t_address"
      },
      {
        "astId": 1492,
        "contract": "contracts/CardActivator.sol:CardActivator",
        "label": "erc721KDesignInstance",
        "offset": 0,
        "slot": "2",
        "type": "t_address"
      },
      {
        "astId": 1495,
        "contract": "contracts/CardActivator.sol:CardActivator",
        "label": "STYLE_UPGRADE_VALUE",
        "offset": 0,
        "slot": "3",
        "type": "t_uint256"
      }
    ],
    "types": {
      "t_address": {
        "encoding": "inplace",
        "label": "address",
        "numberOfBytes": "20"
      },
      "t_uint256": {
        "encoding": "inplace",
        "label": "uint256",
        "numberOfBytes": "32"
      }
    }
  }
}