{
  "address": "0x0E7F29dAEc47Ec5f74fe7381692C9eb4392A4BB1",
  "abi": [
    {
      "inputs": [
        {
          "internalType": "address",
          "name": "svgLibrary_",
          "type": "address"
        },
        {
          "internalType": "address",
          "name": "svgRegistry_",
          "type": "address"
        }
      ],
      "stateMutability": "nonpayable",
      "type": "constructor"
    },
    {
      "inputs": [],
      "name": "Unauthorized",
      "type": "error"
    },
    {
      "anonymous": false,
      "inputs": [
        {
          "indexed": true,
          "internalType": "address",
          "name": "user",
          "type": "address"
        },
        {
          "indexed": true,
          "internalType": "address",
          "name": "newOwner",
          "type": "address"
        }
      ],
      "name": "OwnershipTransferred",
      "type": "event"
    },
    {
      "inputs": [],
      "name": "owner",
      "outputs": [
        {
          "internalType": "address",
          "name": "",
          "type": "address"
        }
      ],
      "stateMutability": "view",
      "type": "function"
    },
    {
      "inputs": [
        {
          "internalType": "bytes",
          "name": "input",
          "type": "bytes"
        }
      ],
      "name": "render",
      "outputs": [
        {
          "internalType": "string",
          "name": "",
          "type": "string"
        }
      ],
      "stateMutability": "view",
      "type": "function"
    },
    {
      "inputs": [],
      "name": "svgLibrary",
      "outputs": [
        {
          "internalType": "address",
          "name": "",
          "type": "address"
        }
      ],
      "stateMutability": "view",
      "type": "function"
    },
    {
      "inputs": [],
      "name": "svgRegistry",
      "outputs": [
        {
          "internalType": "address",
          "name": "",
          "type": "address"
        }
      ],
      "stateMutability": "view",
      "type": "function"
    },
    {
      "inputs": [
        {
          "internalType": "address",
          "name": "newOwner",
          "type": "address"
        }
      ],
      "name": "transferOwnership",
      "outputs": [],
      "stateMutability": "payable",
      "type": "function"
    }
  ],
  "transactionHash": "0xb3b17aa4305efcf7954046050e60cda16bf1d8ad87a86a15b094251dbe7ff576",
  "args": [
    "0x1700AF12268032f96f4c447ac15d381442Be99f4",
    "0xf212c1F9d768AbBB111a23cbAa4172FdAA2A6600"
  ],
  "numDeployments": 1,
  "solcInputHash": "404f5463dd6ebc8ff1a6e382af5684f3",
  "bytecode": "0x60806040523480156200001157600080fd5b5060405162002e4038038062002e408339810160408190526200003491620000c4565b600080546001600160a01b031916339081178255604051909182917f8be0079c531659141344cd1fd0a4f28419497f9722a3daafe3b4186f6b6457e0908290a350600180546001600160a01b039384166001600160a01b03199182161790915560028054929093169116179055620000fc565b80516001600160a01b0381168114620000bf57600080fd5b919050565b60008060408385031215620000d857600080fd5b620000e383620000a7565b9150620000f360208401620000a7565b90509250929050565b612d34806200010c6000396000f3fe60806040526004361061004a5760003560e01c8063316df61e1461004f5780638da5cb5b14610085578063933d9eb5146100bd578063a001e0d5146100dd578063f2fde38b146100fd575b600080fd5b34801561005b57600080fd5b5061006f61006a3660046122f4565b610112565b60405161007c91906123d0565b60405180910390f35b34801561009157600080fd5b506000546100a5906001600160a01b031681565b6040516001600160a01b03909116815260200161007c565b3480156100c957600080fd5b506002546100a5906001600160a01b031681565b3480156100e957600080fd5b506001546100a5906001600160a01b031681565b61011061010b3660046123fb565b610182565b005b60606040518060400160405280601b81526020017f646174613a696d6167652f7376672b786d6c3b6261736536342c20000000000081525061015b610156846101f7565b610526565b60405160200161016c929190612418565b6040516020818303038152906040529050919050565b6000546001600160a01b031633146101ac576040516282b42960e81b815260040160405180910390fd5b600080546001600160a01b0319166001600160a01b0383169081178255604051909133917f8be0079c531659141344cd1fd0a4f28419497f9722a3daafe3b4186f6b6457e09190a350565b60606000806000806000806000806000808b80602001905181019061021c91906124a4565b99509950995099509950995099509950995099506000604051806040016040528060148152602001735765623320536176696e6773204e6574776f726b60601b81525090506104af6040518060400160405280600381526020016273766760e81b8152506102dc60405180604001604052806005815260200164786d6c6e7360d81b8152506040518060400160405280601a81526020017f687474703a2f2f7777772e77332e6f72672f323030302f73766700000000000081525061053a565b6103336040518060400160405280600b81526020016a666f6e742d66616d696c7960a81b815250604051806040016040528060128152602001712937b137ba37961039b0b73996b9b2b934b360711b81525061053a565b610376604051806040016040528060068152602001651a195a59da1d60d21b8152506040518060400160405280600381526020016203330360ec1b81525061053a565b6103b8604051806040016040528060058152602001640eed2c8e8d60db1b8152506040518060400160405280600381526020016203530360ec1b81525061053a565b610404604051806040016040528060078152602001660ecd2caeec4def60cb1b8152506040518060400160405280600b81526020016a030203020353030203330360ac1b81525061053a565b610457604051806040016040528060058152602001647374796c6560d81b81525060405180604001604052806014815260200173626f726465722d7261646975733a20313070783b60601b81525061053a565b61048560405180604001604052806004815260200163199a5b1b60e21b8152506104808c610566565b61053a565b60405160200161049b9796959493929190612565565b60405160208183030381529060405261057b565b6104b883610590565b6104c18a61076d565b6104cd8e8a8887610780565b6104f16040518060400160405280600381526020016273766760e81b8152506107c9565b6040516020016105059594939291906125f7565b6040516020818303038152906040529b505050505050505050505050919050565b6060610534826000806107dc565b92915050565b6060828260405160200161054f9291906126d7565b604051602081830303815290604052905092915050565b6060610534610574836108db565b6000610934565b6060828260405160200161054f92919061272c565b606061067c6105d1604051806040016040528060018152602001600f60fb1b815250604051806040016040528060018152602001600360fc1b81525061053a565b610613604051806040016040528060058152602001640eed2c8e8d60db1b8152506040518060400160405280600381526020016203530360ec1b81525061053a565b610656604051806040016040528060068152602001651a195a59da1d60d21b8152506040518060400160405280600381526020016203530360ec1b81525061053a565b60405160200161066893929190612783565b604051602081830303815290604052610999565b61015b60405180602001604052806000815250604051602001610759907f3c656c6c69707365206f7061636974793d22302e31222063783d22393322206381527f793d22333030222072783d22323330222072793d22313435222066696c6c3d22602082015267313630b1b591179f60c11b60408201527f3c656c6c69707365206f7061636974793d22302e3038222063783d223535302260488201527f2063793d222d313139222072783d22343530222072793d22323437222066696c60688201526a361e91313630b1b591179f60a91b608882015260930190565b6040516020818303038152906040526109c1565b6060610778826109ee565b61015b610ddc565b606061078d858484610ebb565b6107956114a8565b61079e86611890565b6040516020016107b093929190612783565b6040516020818303038152906040529050949350505050565b60608160405160200161016c91906127c6565b6060835180156108d3576003600282010460021b60405192507f4142434445464748494a4b4c4d4e4f505152535455565758595a616263646566601f526102308515027f6768696a6b6c6d6e6f707172737475767778797a303132333435363738392d5f03603f52602083018181015b6003880197508751603f8160121c16518353603f81600c1c16516001840153603f8160061c16516002840153603f81165160038401535060048201915080821061084c57600384068680156108ac576001821482151501850387526108c4565b603d821515850353603d6001831460011b8503538487525b5050601f01601f191660405250505b509392505050565b606081516003146109235760405162461bcd60e51b815260206004820152600d60248201526c2ab735b737bbb71031b7b637b960991b60448201526064015b60405180910390fd5b8160405160200161016c91906127fb565b606061094b6109438484611bd7565b60ff16611c3a565b6109626109438561095d866001612836565b611bd7565b6109746109438661095d876002612836565b6109866109438761095d886003612836565b60405160200161054f949392919061284e565b6060610534604051806040016040528060048152602001631c9958dd60e21b81525083611ccd565b60606109e7604051806040016040528060018152602001606760f81b8152508484611ce2565b9392505050565b6060610bf7610a32604051806040016040528060018152602001600f60fb1b81525060405180604001604052806004815260200163372e352560e01b81525061053a565b610a71604051806040016040528060018152602001607960f81b8152506040518060400160405280600481526020016336322e3560e01b81525061053a565b610ab660405180604001604052806009815260200168666f6e742d73697a6560b81b81525060405180604001604052806002815260200161062760f31b81525061053a565b610b0860405180604001604052806012815260200171616c69676e6d656e742d626173656c696e6560701b815250604051806040016040528060068152602001656d6964646c6560d01b81525061053a565b610b526040518060400160405280600b81526020016a3a32bc3a16b0b731b437b960a91b815250604051806040016040528060058152602001641cdd185c9d60da1b81525061053a565b610b9560405180604001604052806004815260200163199a5b1b60e21b81525060405180604001604052806005815260200164776869746560d81b81525061053a565b604051602001610baa969594939291906128e6565b60408051601f198184030181529082905263784fc7c360e11b60208301526c20546f74616c204368616e636560981b6024830152906031015b604051602081830303815290604052611cfb565b61015b610c39604051806040016040528060018152602001600f60fb1b81525060405180604001604052806004815260200163372e352560e01b81525061053a565b610c77604051806040016040528060018152602001607960f81b8152506040518060400160405280600381526020016203130360ec1b81525061053a565b610cbc60405180604001604052806009815260200168666f6e742d73697a6560b81b81525060405180604001604052806002815260200161199960f11b81525061053a565b610d0e60405180604001604052806012815260200171616c69676e6d656e742d626173656c696e6560701b815250604051806040016040528060068152602001656d6964646c6560d01b81525061053a565b610d586040518060400160405280600b81526020016a3a32bc3a16b0b731b437b960a91b815250604051806040016040528060058152602001641cdd185c9d60da1b81525061053a565b610d9b60405180604001604052806004815260200163199a5b1b60e21b81525060405180604001604052806005815260200164776869746560d81b81525061053a565b604051602001610db0969594939291906128e6565b604051602081830303815290604052610dcc8560066002611d24565b604051602001610be39190612965565b6060610e97610e35604051806040016040528060098152602001687472616e73666f726d60b81b815250604051806040016040528060118152602001707472616e736c617465283335302c33302960781b81525061053a565b604051602001610e45919061298e565b60408051808303601f19018152828252681313d1d3d7d413d3d360ba1b602084015291610e92916a574542335f41535345545360a81b91015b604051602081830303815290604052611daa565b6109c1565b604051602001610ea7919061298e565b604051602081830303815290604052905090565b606061108d610eff604051806040016040528060018152602001600f60fb1b81525060405180604001604052806004815260200163372e352560e01b81525061053a565b610f3f604051806040016040528060018152602001607960f81b8152506040518060400160405280600581526020016436372e352560d81b81525061053a565b610f8460405180604001604052806009815260200168666f6e742d73697a6560b81b815250604051806040016040528060028152602001610c8d60f21b81525061053a565b610fd660405180604001604052806012815260200171616c69676e6d656e742d626173656c696e6560701b815250604051806040016040528060068152602001656d6964646c6560d01b81525061053a565b6110206040518060400160405280600b81526020016a3a32bc3a16b0b731b437b960a91b815250604051806040016040528060058152602001641cdd185c9d60da1b81525061053a565b61106360405180604001604052806004815260200163199a5b1b60e21b81525060405180604001604052806005815260200164776869746560d81b81525061053a565b604051602001611078969594939291906128e6565b60405160208183030381529060405284611cfb565b6112656110cf604051806040016040528060018152602001600f60fb1b81525060405180604001604052806004815260200163372e352560e01b81525061053a565b61110f604051806040016040528060018152602001607960f81b8152506040518060400160405280600581526020016437372e352560d81b81525061053a565b61115460405180604001604052806009815260200168666f6e742d73697a6560b81b81525060405180604001604052806002815260200161064760f31b81525061053a565b6111a660405180604001604052806012815260200171616c69676e6d656e742d626173656c696e6560701b815250604051806040016040528060068152602001656d6964646c6560d01b81525061053a565b6111f06040518060400160405280600b81526020016a3a32bc3a16b0b731b437b960a91b815250604051806040016040528060058152602001641cdd185c9d60da1b81525061053a565b61123360405180604001604052806004815260200163199a5b1b60e21b81525060405180604001604052806005815260200164776869746560d81b81525061053a565b604051602001611248969594939291906128e6565b60405160208183030381529060405261126087611e22565b611cfb565b61147e6112a7604051806040016040528060018152602001600f60fb1b81525060405180604001604052806004815260200163372e352560e01b81525061053a565b6112e7604051806040016040528060018152602001607960f81b8152506040518060400160405280600581526020016438372e352560d81b81525061053a565b61132c60405180604001604052806009815260200168666f6e742d73697a6560b81b815250604051806040016040528060028152602001610c4d60f21b81525061053a565b6113746040518060400160405280600b81526020016a199bdb9d0b5dd95a59da1d60aa1b8152506040518060400160405280600381526020016203330360ec1b81525061053a565b6113c660405180604001604052806012815260200171616c69676e6d656e742d626173656c696e6560701b815250604051806040016040528060068152602001656d6964646c6560d01b81525061053a565b6114106040518060400160405280600b81526020016a3a32bc3a16b0b731b437b960a91b815250604051806040016040528060058152602001641cdd185c9d60da1b81525061053a565b61145360405180604001604052806004815260200163199a5b1b60e21b81525060405180604001604052806005815260200164776869746560d81b81525061053a565b6040516020016114699796959493929190612565565b60405160208183030381529060405285611cfb565b60405160200161149093929190612783565b60405160208183030381529060405290509392505050565b606060006060466001036114f6575050604080518082019091526008815267457468657265756d60c01b60208201527449434f4e5f4e4554574f524b5f455448455245554d60581b90611604565b46600a0361153e5750506040805180820190915260088152674f7074696d69736d60c01b60208201527449434f4e5f4e4554574f524b5f4f5054494d49534d60581b90611604565b466089036115845750506040805180820190915260078152662837b63cb3b7b760c91b60208201527324a1a7a72fa722aa2ba7a925afa827a62ca3a7a760611b90611604565b4661a4b1036115cd575050604080518082019091526008815267417262697472756d60c01b60208201527449434f4e5f4e4554574f524b5f415242495452554d60581b90611604565b50506040805180820190915260078152662ab735b737bbb760c91b6020820152701250d3d397d3915515d3d492d7d51154d5607a1b905b6117cf611645604051806040016040528060018152602001600f60fb1b8152506040518060400160405280600381526020016238352560e81b81525061053a565b611683604051806040016040528060018152602001607960f81b8152506040518060400160405280600381526020016238302560e81b81525061053a565b6116c860405180604001604052806009815260200168666f6e742d73697a6560b81b81525060405180604001604052806002815260200161062760f31b81525061053a565b61171a60405180604001604052806012815260200171616c69676e6d656e742d626173656c696e6560701b815250604051806040016040528060068152602001656d6964646c6560d01b81525061053a565b6117626040518060400160405280600b81526020016a3a32bc3a16b0b731b437b960a91b81525060405180604001604052806003815260200162195b9960ea1b81525061053a565b6117a560405180604001604052806004815260200163199a5b1b60e21b81525060405180604001604052806005815260200164776869746560d81b81525061053a565b6040516020016117ba969594939291906128e6565b60405160208183030381529060405282611cfb565b611869611827604051806040016040528060098152602001687472616e73666f726d60b81b815250604051806040016040528060128152602001717472616e736c617465283434302c3232352960701b81525061053a565b604051602001611837919061298e565b60408051601f198184030181528282526020830187905291610e92916a574542335f41535345545360a81b9101610e7e565b60405160200161187a929190612418565b6040516020818303038152906040529250505090565b6060611a796118d3604051806040016040528060018152602001600f60fb1b8152506040518060400160405280600381526020016239352560e81b81525061053a565b611911604051806040016040528060018152602001607960f81b8152506040518060400160405280600381526020016235302560e81b81525061053a565b61195660405180604001604052806009815260200168666f6e742d73697a6560b81b815250604051806040016040528060028152602001610c4d60f21b81525061053a565b6119a860405180604001604052806012815260200171616c69676e6d656e742d626173656c696e6560701b815250604051806040016040528060068152602001656d6964646c6560d01b81525061053a565b6119f06040518060400160405280600b81526020016a3a32bc3a16b0b731b437b960a91b81525060405180604001604052806003815260200162195b9960ea1b81525061053a565b611a3360405180604001604052806004815260200163199a5b1b60e21b81525060405180604001604052806005815260200164776869746560d81b81525061053a565b604051602001611a48969594939291906128e6565b60408051601f19818403018152828201909152600b82526a1b18102230bc9020bb339760a91b602083015290611cfb565b61015b611aba604051806040016040528060018152602001600f60fb1b8152506040518060400160405280600381526020016239352560e81b81525061053a565b611af8604051806040016040528060018152602001607960f81b8152506040518060400160405280600381526020016236302560e81b81525061053a565b611b3d60405180604001604052806009815260200168666f6e742d73697a6560b81b815250604051806040016040528060028152602001610c8d60f21b81525061053a565b611b8f60405180604001604052806012815260200171616c69676e6d656e742d626173656c696e6560701b815250604051806040016040528060068152602001656d6964646c6560d01b81525061053a565b610d586040518060400160405280600b81526020016a3a32bc3a16b0b731b437b960a91b81525060405180604001604052806003815260200162195b9960ea1b81525061053a565b600081835111611c185760405162461bcd60e51b815260206004820152600c60248201526b4f7574206f662072616e676560a01b604482015260640161091a565b828281518110611c2a57611c2a6129aa565b016020015160f81c905092915050565b60606000611c4783611f04565b600101905060008167ffffffffffffffff811115611c6757611c67612285565b6040519080825280601f01601f191660200182016040528015611c91576020820181803683370190505b5090508181016020015b600019016f181899199a1a9b1b9c1cb0b131b232b360811b600a86061a8153600a8504945084611c9b57509392505050565b6060828260405160200161054f9291906129c0565b6060838383866040516020016114909493929190612a18565b60606109e7604051806040016040528060048152602001631d195e1d60e21b8152508484611ce2565b6060611d43611d3484600a612b95565b611d3e9086612ba4565b611c3a565b611d99611d5184600a612b95565b611d5c86600a612b95565b611d669088612ba4565b611d709190612bc6565b611d7a8587612be5565b611d8590600a612b95565b611d8f9088612ba4565b611d3e9190612c08565b604051602001611490929190612c1f565b600254604051633a68f5db60e01b81526060916001600160a01b031690633a68f5db90611ddd9086908690600401612c5b565b600060405180830381865afa158015611dfa573d6000803e3d6000fd5b505050506040513d6000823e601f3d908101601f191682016040526109e79190810190612c74565b60606000611e3a836001600160a01b03166014611fdc565b90506000611e6a82604051602001611e52919061298e565b60405160208183030381529060405260006006612178565b90506000611e9a83604051602001611e82919061298e565b60405160208183030381529060405260256004612178565b905081604051602001611ead919061298e565b60405160208183030381529060405281604051602001611ecd919061298e565b60408051601f1981840301815290829052611eeb9291602001612ca9565b6040516020818303038152906040529350505050919050565b60008072184f03e93ff9f4daa797ed6e38ed64bf6a1f0160401b8310611f435772184f03e93ff9f4daa797ed6e38ed64bf6a1f0160401b830492506040015b6d04ee2d6d415b85acef81000000008310611f6f576d04ee2d6d415b85acef8100000000830492506020015b662386f26fc100008310611f8d57662386f26fc10000830492506010015b6305f5e1008310611fa5576305f5e100830492506008015b6127108310611fb957612710830492506004015b60648310611fcb576064830492506002015b600a83106105345760010192915050565b60606000611feb836002612bc6565b611ff6906002612836565b67ffffffffffffffff81111561200e5761200e612285565b6040519080825280601f01601f191660200182016040528015612038576020820181803683370190505b509050600360fc1b81600081518110612053576120536129aa565b60200101906001600160f81b031916908160001a905350600f60fb1b81600181518110612082576120826129aa565b60200101906001600160f81b031916908160001a90535060006120a6846002612bc6565b6120b1906001612836565b90505b6001811115612129576f181899199a1a9b1b9c1cb0b131b232b360811b85600f16601081106120e5576120e56129aa565b1a60f81b8282815181106120fb576120fb6129aa565b60200101906001600160f81b031916908160001a90535060049490941c9361212281612ce7565b90506120b4565b5083156109e75760405162461bcd60e51b815260206004820181905260248201527f537472696e67733a20686578206c656e67746820696e73756666696369656e74604482015260640161091a565b60608161218681601f612836565b10156121c55760405162461bcd60e51b815260206004820152600e60248201526d736c6963655f6f766572666c6f7760901b604482015260640161091a565b6121cf8284612836565b845110156122135760405162461bcd60e51b8152602060048201526011602482015270736c6963655f6f75744f66426f756e647360781b604482015260640161091a565b606082158015612232576040519150600082526020820160405261227c565b6040519150601f8416801560200281840101858101878315602002848b0101015b8183101561226b578051835260209283019201612253565b5050858452601f01601f1916604052505b50949350505050565b634e487b7160e01b600052604160045260246000fd5b604051601f8201601f1916810167ffffffffffffffff811182821017156122c4576122c4612285565b604052919050565b600067ffffffffffffffff8211156122e6576122e6612285565b50601f01601f191660200190565b60006020828403121561230657600080fd5b813567ffffffffffffffff81111561231d57600080fd5b8201601f8101841361232e57600080fd5b803561234161233c826122cc565b61229b565b81815285602083850101111561235657600080fd5b81602084016020830137600091810160200191909152949350505050565b60005b8381101561238f578181015183820152602001612377565b8381111561239e576000848401525b50505050565b600081518084526123bc816020860160208601612374565b601f01601f19169290920160200192915050565b6020815260006109e760208301846123a4565b6001600160a01b03811681146123f857600080fd5b50565b60006020828403121561240d57600080fd5b81356109e7816123e3565b6000835161242a818460208801612374565b83519083019061243e818360208801612374565b01949350505050565b8051612452816123e3565b919050565b600082601f83011261246857600080fd5b815161247661233c826122cc565b81815284602083860101111561248b57600080fd5b61249c826020830160208701612374565b949350505050565b6000806000806000806000806000806101408b8d0312156124c457600080fd5b6124cd8b612447565b99506124db60208c01612447565b985060408b0151975060608b0151965060808b0151955060a08b0151945060c08b0151935060e08b015192506101008b015167ffffffffffffffff8082111561252357600080fd5b61252f8e838f01612457565b93506101208d015191508082111561254657600080fd5b506125538d828e01612457565b9150509295989b9194979a5092959850565b6000885160206125788285838e01612374565b89519184019161258b8184848e01612374565b895192019161259d8184848d01612374565b88519201916125af8184848c01612374565b87519201916125c18184848b01612374565b86519201916125d38184848a01612374565b85519201916125e58184848901612374565b919091019a9950505050505050505050565b60008651602061260a8285838c01612374565b87519184019161261d8184848c01612374565b875192019161262f8184848b01612374565b86519201916126418184848a01612374565b7f3c646566733e3c7374796c653e2e746578742d736861646f772d6d64207b746592019182527f78742d736861646f773a20307078203470782031307078207267626128302c20818301527f302c20302c20302e3132293b7d3c2f7374796c653e3c2f646566733e00000000604083015284516126c481605c8501888501612374565b91909101605c0198975050505050505050565b600083516126e9818460208801612374565b603d60f81b908301908152601160f91b60018201528351612711816002840160208801612374565b61011160f51b60029290910191820152600401949350505050565b600f60fa1b815260008351612748816001850160208801612374565b600160fd1b6001918401918201528351612769816002840160208801612374565b601f60f91b60029290910191820152600301949350505050565b60008451612795818460208901612374565b8451908301906127a9818360208901612374565b84519101906127bc818360208801612374565b0195945050505050565b613c2f60f01b8152600082516127e3816002850160208701612374565b601f60f91b6002939091019283015250600301919050565b6000825161280d818460208701612374565b601960fa1b920191825250600101919050565b634e487b7160e01b600052601160045260246000fd5b6000821982111561284957612849612820565b500190565b640e4cec4c2560db1b81526000855161286e816005850160208a01612374565b8083019050600b60fa1b8060058301528651612891816006850160208b01612374565b6006920191820181905285516128ae816007850160208a01612374565b600792019182015283516128c9816008840160208801612374565b61252960f01b60089290910191820152600a019695505050505050565b6000875160206128f98285838d01612374565b88519184019161290c8184848d01612374565b885192019161291e8184848c01612374565b87519201916129308184848b01612374565b86519201916129428184848a01612374565b85519201916129548184848901612374565b919091019998505050505050505050565b600960fa1b815260008251612981816001850160208701612374565b9190910160010192915050565b600082516129a0818460208701612374565b9190910192915050565b634e487b7160e01b600052603260045260246000fd5b600f60fa1b8152600083516129dc816001850160208801612374565b600160fd1b60019184019182015283516129fd816002840160208801612374565b61179f60f11b60029290910191820152600401949350505050565b600f60fa1b815260008551612a34816001850160208a01612374565b600160fd1b6001918401918201528551612a55816002840160208a01612374565b808201915050601f60f91b8060028301528551612a79816003850160208a01612374565b613c2f60f01b600393909101928301528451612a9c816005850160208901612374565b60059201918201526006019695505050505050565b600181815b80851115612aec578160001904821115612ad257612ad2612820565b80851615612adf57918102915b93841c9390800290612ab6565b509250929050565b600082612b0357506001610534565b81612b1057506000610534565b8160018114612b265760028114612b3057612b4c565b6001915050610534565b60ff841115612b4157612b41612820565b50506001821b610534565b5060208310610133831016604e8410600b8410161715612b6f575081810a610534565b612b798383612ab1565b8060001904821115612b8d57612b8d612820565b029392505050565b60006109e760ff841683612af4565b600082612bc157634e487b7160e01b600052601260045260246000fd5b500490565b6000816000190483118215151615612be057612be0612820565b500290565b600060ff821660ff841680821015612bff57612bff612820565b90039392505050565b600082821015612c1a57612c1a612820565b500390565b60008351612c31818460208801612374565b601760f91b9083019081528351612c4f816001840160208801612374565b01600101949350505050565b82815260406020820152600061249c60408301846123a4565b600060208284031215612c8657600080fd5b815167ffffffffffffffff811115612c9d57600080fd5b61249c84828501612457565b60008351612cbb818460208801612374565b6217171760e91b9083019081528351612cdb816003840160208801612374565b01600301949350505050565b600081612cf657612cf6612820565b50600019019056fea264697066735822122018103ac69ad8c9172aeccdb8923396a46e6f3fdab9855e39d6f0eaa5023b0d5a64736f6c634300080f0033",
  "devdoc": {
    "kind": "dev",
    "methods": {},
    "version": 1
  },
  "userdoc": {
    "errors": {
      "Unauthorized()": [
        {
          "notice": "----------------------------------------------------------------------- Custom Errors -----------------------------------------------------------------------"
        }
      ]
    },
    "events": {
      "OwnershipTransferred(address,address)": {
        "notice": "----------------------------------------------------------------------- Events -----------------------------------------------------------------------"
      }
    },
    "kind": "user",
    "methods": {
      "owner()": {
        "notice": "----------------------------------------------------------------------- Ownership Storage -----------------------------------------------------------------------"
      },
      "transferOwnership(address)": {
        "notice": "----------------------------------------------------------------------- Ownership Logic -----------------------------------------------------------------------"
      }
    },
    "version": 1
  },
  "storageLayout": {
    "storage": [
      {
        "astId": 12571,
        "contract": "contracts/PoolTogether/PoolTogetherV0Render.sol:PoolTogetherV0Render",
        "label": "owner",
        "offset": 0,
        "slot": "0",
        "type": "t_address"
      },
      {
        "astId": 8840,
        "contract": "contracts/PoolTogether/PoolTogetherV0Render.sol:PoolTogetherV0Render",
        "label": "svgLibrary",
        "offset": 0,
        "slot": "1",
        "type": "t_address"
      },
      {
        "astId": 8842,
        "contract": "contracts/PoolTogether/PoolTogetherV0Render.sol:PoolTogetherV0Render",
        "label": "svgRegistry",
        "offset": 0,
        "slot": "2",
        "type": "t_address"
      }
    ],
    "types": {
      "t_address": {
        "encoding": "inplace",
        "label": "address",
        "numberOfBytes": "20"
      }
    }
  }
}