{
  "address": "0x88E8e2a4e7E013003839784DE5d515123060B461",
  "abi": [
    {
      "inputs": [
        {
          "internalType": "bytes",
          "name": "_data",
          "type": "bytes"
        },
        {
          "internalType": "uint256",
          "name": "_offset",
          "type": "uint256"
        }
      ],
      "name": "byte2uint8",
      "outputs": [
        {
          "internalType": "uint8",
          "name": "",
          "type": "uint8"
        }
      ],
      "stateMutability": "pure",
      "type": "function"
    },
    {
      "inputs": [
        {
          "internalType": "bytes",
          "name": "_data",
          "type": "bytes"
        },
        {
          "internalType": "uint256",
          "name": "_offset",
          "type": "uint256"
        },
        {
          "internalType": "uint256",
          "name": "_len",
          "type": "uint256"
        }
      ],
      "name": "stringifyIntSet",
      "outputs": [
        {
          "internalType": "bytes",
          "name": "",
          "type": "bytes"
        }
      ],
      "stateMutability": "pure",
      "type": "function"
    }
  ],
  "transactionHash": "0x233a6c70a9be347144eeebfcb53b06106e8b9a1bcfd01d34a1ba0cbc472ca2f7",
  "args": [],
  "numDeployments": 1,
  "solcInputHash": "404f5463dd6ebc8ff1a6e382af5684f3",
  "bytecode": "0x61057d61003a600b82828239805160001a60731461002d57634e487b7160e01b600052600060045260246000fd5b30600052607381538281f3fe73000000000000000000000000000000000000000030146080604052600436106100405760003560e01c80635119ce4b14610045578063c821f2ef1461006f575b600080fd5b6100586100533660046103b9565b61008f565b60405160ff90911681526020015b60405180910390f35b61008261007d3660046103fe565b6100f7565b604051610066919061047c565b6000818351116100d55760405162461bcd60e51b815260206004820152600c60248201526b4f7574206f662072616e676560a01b60448201526064015b60405180910390fd5b8282815181106100e7576100e76104af565b016020015160f81c905092915050565b60608061010483856104db565b855110156101435760405162461bcd60e51b815260206004820152600c60248201526b4f7574206f662072616e676560a01b60448201526064016100cc565b835b61014f84866104db565b8110156101a1578161016c610164888461008f565b60ff166101aa565b60405160200161017d9291906104f3565b604051602081830303815290604052915080806101999061052e565b915050610145565b50949350505050565b606060006101b78361023d565b600101905060008167ffffffffffffffff8111156101d7576101d7610316565b6040519080825280601f01601f191660200182016040528015610201576020820181803683370190505b5090508181016020015b600019016f181899199a1a9b1b9c1cb0b131b232b360811b600a86061a8153600a850494508461020b57509392505050565b60008072184f03e93ff9f4daa797ed6e38ed64bf6a1f0160401b831061027c5772184f03e93ff9f4daa797ed6e38ed64bf6a1f0160401b830492506040015b6d04ee2d6d415b85acef810000000083106102a8576d04ee2d6d415b85acef8100000000830492506020015b662386f26fc1000083106102c657662386f26fc10000830492506010015b6305f5e10083106102de576305f5e100830492506008015b61271083106102f257612710830492506004015b60648310610304576064830492506002015b600a8310610310576001015b92915050565b634e487b7160e01b600052604160045260246000fd5b600082601f83011261033d57600080fd5b813567ffffffffffffffff8082111561035857610358610316565b604051601f8301601f19908116603f0116810190828211818310171561038057610380610316565b8160405283815286602085880101111561039957600080fd5b836020870160208301376000602085830101528094505050505092915050565b600080604083850312156103cc57600080fd5b823567ffffffffffffffff8111156103e357600080fd5b6103ef8582860161032c565b95602094909401359450505050565b60008060006060848603121561041357600080fd5b833567ffffffffffffffff81111561042a57600080fd5b6104368682870161032c565b9660208601359650604090950135949350505050565b60005b8381101561046757818101518382015260200161044f565b83811115610476576000848401525b50505050565b602081526000825180602084015261049b81604085016020870161044c565b601f01601f19169190910160400192915050565b634e487b7160e01b600052603260045260246000fd5b634e487b7160e01b600052601160045260246000fd5b600082198211156104ee576104ee6104c5565b500190565b6000835161050581846020880161044c565b83519083019061051981836020880161044c565b600160fd1b9101908152600101949350505050565b600060018201610540576105406104c5565b506001019056fea26469706673582212203b11f4c7f6080d6e1f1f653df7cf768eb78cb558ad5252b782e0e10fd520654964736f6c634300080f0033",
  "devdoc": {
    "author": "Kames Geraghty",
    "details": "Original code from w1nt3r-eth/hot-chain-svg (https://github.com/w1nt3r-eth/hot-chain-svg)",
    "kind": "dev",
    "methods": {},
    "title": "svg",
    "version": 1
  },
  "userdoc": {
    "kind": "user",
    "methods": {},
    "notice": "SVG construction library using web-like API.",
    "version": 1
  },
  "storageLayout": {
    "storage": [],
    "types": null
  }
}